:100000000C9419060C9441060C9441060C9441067C
:100010000C9441060C9441060C9441060C94410644
:100020000C9441060C9441060C94C20B0C94310CB8
:100030000C9441060C9441060C9441060C94410624
:100040000C9441060C9441060C9441060C94410614
:100050000C9441060C9441060C9441060C94630EDA
:100060000C9441060C9441060C9441060C944106F4
:100070000C9441060C9441060C9441060C944106E4
:100080000C9441060C9441060C9441060C944106D4
:100090000C9441060C9441060C9441060C944106C4
:1000A0000C9441060C9441060C944106000000009B
:1000B000003E5B4F5B3E3E6B4F6B3E1C3E7C3E1CEE
:1000C000183C7E3C181C577D571C1C5E7F5E1C0034
:1000D000183C1800FFE7C3E7FF0018241800FFE7EB
:1000E000DBE7FF30483A060E2629792926407F05AE
:1000F0000507407F05253F5A3CE73C5A7F3E1C1CC4
:1001000008081C1C3E7F14227F22145F5F005F5F83
:1001100006097F017F006689956A6060606060946F
:10012000A2FFA29408047E040810207E2010080874
:100130002A1C08081C2A08081E101010100C1E0C7F
:100140001E0C30383E3830060E3E0E060000000011
:100150000000005F00000007000700147F147F14F8
:10016000242A7F2A1223130864623649562050003D
:1001700008070300001C2241000041221C002A1C29
:100180007F1C2A08083E0808008070300008080814
:100190000808000060600020100804023E51494534
:1001A0003E00427F400072494949462141494D3352
:1001B0001814127F1027454545393C4A49493141B9
:1001C000211109073649494936464949291E000087
:1001D00014000000403400000008142241141414DC
:1001E0001414004122140802015909063E415D59C8
:1001F0004E7C1211127C7F494949363E41414122D1
:100200007F4141413E7F494949417F090909013EFA
:10021000414151737F0808087F00417F4100204021
:10022000413F017F081422417F404040407F021C33
:10023000027F7F0408107F3E4141413E7F0909094A
:10024000063E4151215E7F09192946264949493216
:1002500003017F01033F4040403F1F2040201F3FDC
:100260004038403F63140814630304780403615961
:10027000494D43007F4141410204081020004141A3
:10028000417F04020102044040404040000307084F
:100290000020545478407F2844443838444444284B
:1002A000384444287F385454541800087E090218F2
:1002B000A4A49C787F0804047800447D400020407A
:1002C000403D007F1028440000417F40007C0478BE
:1002D00004787C080404783844444438FC18242406
:1002E0001818242418FC7C08040408485454542486
:1002F00004043F44243C4040207C1C2040201C3C03
:100300004030403C44281028444C9090907C4464F9
:10031000544C44000836410000007700000041368C
:10032000080002010204023C2623263C1EA1A16112
:10033000123A4040207A3854545559215555794144
:100340002154547841215554784020545579400C1B
:100350001E527212395555555939545454593955FC
:100360005454580000457C410002457D420001453F
:100370007C40F0292429F0F0282528F07C545545AC
:10038000002054547C547C0A097F4932494949323F
:100390003248484832324A4848303A4141217A3A54
:1003A00042402078009DA0A07D39444444393D401E
:1003B00040403D3C24FF2424487E4943662B2FFCCB
:1003C0002F2BFF0929F620C0887E09032054547979
:1003D000410000447D413048484A32384040227A4A
:1003E000007A0A0A727D0D19317D2629292F2826C7
:1003F0002929292630484D402038080808080808CF
:100400000808382F10C8ACBA2F102834FA00007B27
:10041000000008142A142222142A1408950022002D
:1004200095AA005500AAAA55AA55AA000000FF00E7
:10043000101010FF00141414FF001010FF00FF1024
:1004400010F010F0141414FC001414F700FF000056
:10045000FF00FF1414F404FC141417101F10101FD5
:10046000101F1414141F00101010F0000000001FC3
:10047000101010101F10101010F010000000FF10CE
:100480001010101010101010FF10000000FF1400CA
:1004900000FF00FF00001F10170000FC04F41414FC
:1004A0001710171414F404F40000FF00F7141414C8
:1004B00014141414F700F7141414171410101F1048
:1004C0001F141414F4141010F010F000001F101F6B
:1004D0000000001F14000000FC140000F010F010D9
:1004E00010FF10FF141414FF141010101F00000050
:1004F00000F010FFFFFFFFFFF0F0F0F0F0FFFFFF54
:100500000000000000FFFF0F0F0F0F0F38444438AA
:10051000447C2A2A3E147E02020606027E027E02E5
:1005200063554941633844443C04407E201E200604
:10053000027E020299A5E7A5991C2A492A1C4C7241
:1005400001724C304A4D4D303048784830BC625AC8
:10055000463D3E494949007E0101017E2A2A2A2A58
:100560002A44445F444440514A444040444A514034
:100570000000FF0103E080FF000008086B6B0836F5
:1005800012362436060F090F060000181800000066
:100590001010003040FF0101001F01011E00191D55
:1005A0001712003C3C3C3C0000000000F0F89C8E20
:1005B0008783878E9CF8F00000FEFF03030303038C
:1005C000070EFCF80000FEFF0303030303070EFC05
:1005D000F80000FFFF00000000000000FFFF000027
:1005E000FEFF8383838383C7EE7C380000F8FC0E14
:1005F00007030303070EFCF800003F7FE0C0808084
:10060000C0E07F3FFFFF01010101010101FFFF0089
:1006100000FFFF0C0C0C0C1C3E77E3C100007FFFB9
:10062000C0C0C0C0C0E0703F1F00001F3F70E0C0EE
:10063000C0C0E0703F1F00007FFFC1C1C1C1C1E366
:10064000773E1C00001F3F70E0C0C0C0E0703F1F3D
:10065000000000000001FFFF010000008D14A1C890
:1006600081CFD9F102AF00010409101924314051A2
:10067000646F90A9C4E1FF061000080C46622000D8
:1006800010306246041208387C447C38007C7C14AC
:100690001404007C7C141404001208387C447C3858
:1006A000007C7C18307C7C000000000000071000FB
:1006B000FCFEFA06FC00000F1F17180F000E18E0D2
:1006C000101010E03098CC66327AF206FCFF000081
:1006D00000FF803F7FC6D3D8FF00FF00010101006B
:1006E0000103060C090B090C070E18E0101010E0AE
:1006F0003098CC6632FAF206FCFF000000FF803F23
:100700007FDEC0DFFF00FF00010101000103060CD6
:10071000090B090C070E080705FD8181FD05EFBADD
:1007200092C692BAEE0E0800FF8181ED8193FEBA67
:1007300092C692BAEE0E10FEFF0303033333330367
:100740000347FEFC801F3F303030333333333030CB
:10075000381F0F0E10F8FC0E0703E3F3F363434753
:100760004EFCF8070F1C3830313333193030303F2E
:100770003F0E10FEFF03030333333333038387FE3F
:100780007C1F3F3030303F1F1E3C3030313F1F0850
:10079000081C3E7F5F4F261C000808F8FCBEBFBE49
:1007A0008CF80008081F3F7FDF67311F000808082A
:1007B0001C3E7F5F5F437F08087F5F5F4F6F361C83
:1007C0000880400000FEFEFE6666E6E6FEBE1C00F7
:1007D00000000000E01048A848A848A848A848A879
:1007E00048A848A848A848A848A848A848A848A889
:1007F00048A848A848A848A848A848A848A848A879
:1008000048A848A848A848A848A848A848A848A868
:1008100048A848A848A848A848A848A848A848A858
:1008200048A848A848A848A848A848A848A848A848
:1008300048A848A848A848A848A848A848A84810D0
:10084000E00000000007078780808081870707009D
:100850000000000000010202020202020202020283
:100860000202020202020202020202020202020268
:100870000202020202020202020202020202020258
:100880000202020202020202020202020202020248
:100890000202020202020202020202020202020238
:1008A0000202020202020202020202020202020228
:1008B0000202020202020202020202020202020119
:1008C00000000000007EFFFFC38181D3F7F7F60030
:1008D00000000000384492AA92AA92AA92AA92AA70
:1008E00092AA92AA92AA92AA92AA92AA92AA92AA28
:1008F00092AA92AA92AA92AA92AA92AA92AA92AA18
:1009000092AA92AA92AA92AA92AA92AA92AA92AA07
:1009100092AA92AA92AA92AA92AA92AA92AA92AAF7
:1009200092AA92AA92AA92AA92AA92AA92AA92AAE7
:1009300092AA92AA92AA92AA92AA92AA92AA92443D
:100940003800000000E0E0E1616161E0E1C1010028
:100950000000000000008080808080808080808097
:100960008080808080808080808080808080808087
:100970008080808080808080808080808080808077
:100980008080808080808080808080808080808067
:100990008080808080808080808080808080808057
:1009A0008080808080808080808080808080808047
:1009B00080808080808080808080808080808000B7
:1009C00000000000007F7F7F666666677F7D3800DD
:1009D000000000000E11242A242A242A242A242A72
:1009E000242A242A242A242A242A242A242A242A97
:1009F000242A242A242A242A242A242A242A242A87
:100A0000242A242A242A242A242A242A242A242A76
:100A1000242A242A242A242A242A242A242A242A66
:100A2000242A242A242A242A242A242A242A242A56
:100A3000242A242A242A242A242A242A242A24115F
:100A40000E00000000E0E020E0C00040C080C04098
:100A50000000000000000000000000000000000096
:100A600000000000000000000000000080C06020C6
:100A700060C0000000000000000000000000000056
:100A8000000080C0602060C0000000000000000086
:100A900000800080008000AA020002000200020024
:100AA00002AA00800080008000000000000000001A
:100AB00000000000003E2A1440200010001000201A
:100AC00040000000808787818786000406030604B3
:100AD0000000000000000000000000000000000016
:100AE000000000000000FFFFFF00FE03010CFE00FD
:100AF00000FF00000000000000000000FFFFFF00FA
:100B0000FE0301CC663C00FF000000000000000076
:100B100000D5000000000000000000000000000000
:100B2000000000000000005500000038163880402A
:100B300000200020004080051020004000400020E0
:100B40001005000000001F1F000000111B0E1B11EC
:100B50000000000000000000000000000000000095
:100B60000000000000000707070003060C193121F0
:100B7000301F000000000000000000000707070011
:100B800003060C193121301F000000000000000096
:100B900000020002000200AA8000800080008000A5
:100BA00080AA00020002000300000000000A2040AA
:100BB000008000800040200A0000000000000000CB
:100BC000000000080B0002020200000904000001FE
:100BD0000202000005240010010524010101042483
:100BE00002060524060001070581031000400904E0
:100BF0000100020A0000000705020240000007058C
:100C000083024000000403090412010002EF020104
:100C1000404123368000010102030141726475697D
:100C20006E6F204C4C430041424131313036000060
:100C3000E00E11241FBECFEFDAE0DEBFCDBF11E022
:100C4000A0E0B1E0EAEEF4E202C005900D92A2331A
:100C5000B107D9F725E0A2E3B1E001C01D92AD3B99
:100C6000B207E1F716E0C9E1D6E004C02197FE0122
:100C70000E946D12C831D107C9F70E94FD0E0C9475
:100C800073120C940000E9E6F1E030EB20E146E05D
:100C90005C983EBD4A95F1F72EBD20E8239507C02C
:100CA000449140815C9A4EBD8111412D4193449104
:100CB0002A95B1F73395383B49F744910DB408951F
:100CC000FC0180916801882311F13FB7F89482E01C
:100CD0008093E9002091F200822F90E01816190607
:100CE00014F481E090E0882339F0289844E640939A
:100CF00067014091F1004083222339F02091F200F6
:100D0000211103C02BE62093E8003FBF08958FEF29
:100D10009FEF08952FB7F89483E08093E9009091B6
:100D2000E800892F807295FF04C09091F20080E462
:100D3000891B2FBF089580915F0181110DC082E052
:100D400080935B0184E080935C0110925E011092BD
:100D50005D0181E080935F018BE591E00895CF9381
:100D6000DF931F92CDB7DEB76983DC01ED91FC9173
:100D70000280F381E02D41E050E0BE016F5F7F4FC4
:100D800009950F90DF91CF91089583E08093E9005A
:100D90008091F200882319F08AE38093E800089597
:100DA0000E948A0690E00895CF93DF931F92CDB7FB
:100DB000DEB7FC018485958597FD08C02FEF3FEFD6
:100DC000358724870F90DF91CF910895CE0101964A
:100DD0000E946006019719F4898190E0F3CF8FEFAC
:100DE0009FEFF0CF0F931F93CF93DF931F92CDB759
:100DF000DEB78C01FC018485958597FF0BC0CE0181
:100E000001960E946006019771F4898190E0F801D3
:100E100095878487F801848595850F90DF91CF9120
:100E20001F910F9108958FEF9FEFF1CFFC01848503
:100E3000958597FD0BC09FB7F89482E08093E900F9
:100E40008091F2009FBF90E0019608959FB7F894BB
:100E500082E08093E9008091F2009FBF90E00895C6
:100E60004091550150915601209153013091540108
:100E700042175307B4F49091E8009570E1F3909114
:100E8000E80092FD19C08093F10080915501909186
:100E9000560101968F739927892B19F48EEF809351
:100EA000E80080915501909156010196909356016A
:100EB0008093550181E0089580E00895DF92EF92DC
:100EC000FF920F931F93CF93DF93D82E8A01EB01EC
:100ED0007B01E40EF51ECE15DF0559F0D7FE12C0DA
:100EE000FE0184910E94300721968111F4CF0FEF0B
:100EF0001FEFC801DF91CF911F910F91FF90EF90ED
:100F0000DF9008958881EECF0F931F93CF93DF93E7
:100F10001F92CDB7DEB782E0898342E450E063ECF4
:100F20007BE080E80E945E070E949B06DC0112962F
:100F30000D911C910115110589F0D801ED91FC91DD
:100F40000280F381E02DBE016F5F7F4FC8010995DC
:100F500097FD04C0F80100851185ECCF89810F90C1
:100F6000DF91CF911F910F910895615030F0209142
:100F7000F100FC0120830196F8CF289884E6809345
:100F800067010895AF92BF92CF92DF92EF92FF92E6
:100F90000F931F93CF93DF936C017B018B01040FA1
:100FA000151FEB015E01AE18BF08C017D10759F03D
:100FB0006991D601ED91FC910190F081E02DC6017F
:100FC0000995892B79F7C501DF91CF911F910F9179
:100FD000FF90EF90DF90CF90BF90AF900895FC010D
:100FE0000E948608319728F068517C4F8F4F9F4FA1
:100FF000F9CFAB01FC010E948608641775078E07C4
:101000009F07C8F308958F929F92AF92BF92CF929D
:10101000DF92EF92FF920F931F93CF93DF936C01B8
:101020007B018A0180910C01882309F45AC08091C8
:101030006801882309F455C080915A0180FF05C0DA
:101040008091E00082608093E000E801B12C8AEF9B
:10105000A82E93E0892E2AE3922E209711F4BB202C
:10106000C9F10E948A06811108C0AA94AA20C9F178
:1010700081E090E00E94EF07F0CF8C171D0611F081
:101080000CF08C2F9FB7F8948092E9002091E80033
:1010900025FD02C09FBFE1CF282F30E0C21BD30B3C
:1010A000F701815020F041914093F100FACFE20E18
:1010B000F31EBB2021F09092E800B12CEBCF809181
:1010C000E80085FDE7CF9092E800BB24B394209719
:1010D00009F3F3CF5D9884E6809359011016110649
:1010E0003CF081E090E0F6019383828310E000E021
:1010F000C801DF91CF911F910F91FF90EF90DF908A
:10110000CF90BF90AF909F908F900895AAE3B1E0E9
:101110002FB7F8947D918D919C9166B52FBFA89BB8
:1011200005C06F3F18F47F5F8F4F9F4F22E0660F1F
:10113000771F881F991F2A95D1F708954F925F92C4
:101140006F927F928F929F92AF92BF92CF92DF92D7
:10115000EF92FF920F931F93CF93DF934C01FC2DDF
:10116000C02FD0E0DE01A80FB91F1A161B060CF025
:101170005DC080E8881691040CF058C0CB018E0D3C
:10118000911D181619060CF051C04115510509F4AE
:101190004DC0162F1770CB0177FD0796E3E09595AC
:1011A0008795EA95E1F7982F6F3F7F4F11F4111162
:1011B0009FEFAA24BB24A818B90897FC02C0B12C41
:1011C000A12CA038B10514F000E808190A1961E053
:1011D0008E2D877009F460E0E694E694E694E60EBE
:1011E000A92F092E000CBB0BBD016E0D711D6930BE
:1011F00071051CF078E0E72EE91AB695BA2FAA27F8
:10120000B795A795A80DB91DAA0DBB1D4A0D5B1D6D
:10121000612F012E000C770BF33009F415C1B8F4DF
:10122000F13009F4CAC0F23009F477C0DF91CF91F0
:101230001F910F91FF90EF90DF90CF90BF90AF90F4
:101240009F908F907F906F905F904F900895FA3F9E
:10125000A1F1E90EFB3F51F79E1541F39D0127597E
:101260003E4FD12CC12CC01608F0A1C0FA01EC0DE4
:10127000FD1DE491F0E04F01062E02C0880C991C80
:101280000A94E2F797FD06C0F9018081B82CB0946A
:101290008B218083112359F097304CF45901F0E8E9
:1012A000AF0EB11C9094F501808189218083FFEFFE
:1012B000CF1ADF0A2F5F3F4FD6CFE90E9E1509F4F4
:1012C000B5CF9D0127593E4FD12CC12CC01608F037
:1012D00068C0FA01EC0DFD1DE491F0E04F01062E0F
:1012E00002C0880C991C0A94E2F797FD04C0F9012A
:1012F000808188298083112351F0973044F459016B
:10130000F0E8AF0EB11CF501808189298083FFEFE1
:10131000CF1ADF0A2F5F3F4FD9CF2FEF30E0012EDA
:1013200002C0220F331F0A94E2F720953095732EE6
:10133000E90E9E1509F47ACFFD01E759FE4F6F01C2
:10134000B12CA12CA01638F5FA01EA0DFB1DE49191
:10135000F0E02F01062E02C0440C551C0A94E2F75F
:1013600097FD05C0F60180818223842980831123A3
:1013700059F097304CF44601F0E88F0E911CF401BF
:101380008081872185298083FFEFAF1ABF0A8FEF05
:10139000C81AD80AD7CF9F5F4C0F5D1FA058BF4F08
:1013A000C8CF9F5F4C0F5D1FA058BF4F87CF9F5F77
:1013B0004C0F5D1FA058BF4F4FCF2A0D3B1DE90EAC
:1013C0009E1509F433CFFD01E759FE4F6F01B12C93
:1013D000A12CA01688F5F901EA0DFB1D8490912C33
:1013E000062E02C0880C991C0A94E2F7809490940F
:1013F000FA01EA0DFB1D6490712C062E02C0660CEA
:10140000771C0A94E2F797FD05C0F60180818821D8
:1014100086298083112349F097303CF4F601E05887
:10142000FF4F8081892187298083FFEFAF1ABF0A90
:101430008FEFC81AD80ACDCF9F5F4C0F5D1F2C0FBE
:101440003D1FA058BF4FBCCFC02ED12CA40EB51E3F
:10145000A759BE4F60E870E06C197D09CC19DD0911
:101460009E01220F331FE1E0F0E06F01012E01C069
:10147000CC0C0A94EAF74E2D592FE02EF501F12EEF
:10148000CF93DF93ED01EF96EF9622968590A5908E
:10149000FF2059F08C9C4001AC9C500157302CF43B
:1014A000D880B094DB20D928D99255233AF0DC902B
:1014B000A094DA20D828DD920C945F0A11960A9540
:1014C00029F74A9551F00E2D53951124E20FF11D85
:1014D000A60FB11DC60FD11DD9CFDF91CF91112419
:1014E000A5CECF92EF920F934115510561F0FA010D
:1014F00004913196E4904E5F5F4F22E0C22E30E0BF
:1015000020E00E949E080F91EF90CF900895CF9217
:10151000EF920F93FA0104913196E4904E5F5F4F82
:101520002AEFC22E30E020E00E949E080F91EF903B
:10153000CF90089590E00C94EF078FB18095807F55
:10154000669B88601C9B846008956F927F928F9247
:101550009F92AF92BF92CF92DF92EF92FF920F9342
:101560001F93CF93DF9300D01F92CDB7DEB76D30BE
:1015700089F0A0903E01B0903F016A30F9F41092DA
:101580004101109240019501285F3F4F30933F0188
:1015900020933E0181E090E00F900F900F90DF913B
:1015A000CF911F910F91FF90EF90DF90CF90BF9060
:1015B000AF909F908F907F906F9008950091400121
:1015C0001091410135E0639FF0011124E455FF4F74
:1015D000A801712C80E1682E98E0D92EDA0C75E014
:1015E00060E0771621F0CF0101966491FC01C501FE
:1015F00040385105D0F480349105B8F4A62FA1707D
:10160000CA2E9C0171E021FD74E020FD770F22FDC0
:101610007295287F629ED0011124A40FA759BE4F56
:101620000C90072AC0FE07260C9266950196D812E8
:10163000DFCF73944F5F5F4F86E07812D0CF0A5FA1
:101640001F4F1093410100934001A4CFCF93C82FA7
:101650000E949D0A982F9C2381E09C1380E0CF91EB
:10166000089580E00C944306E0915201E73008F0C1
:101670003FC0F0E0E25CF44F0C946D12450B4D0B53
:10168000550B5D0B640B6B0B720B80914E0180311F
:1016900078F58F5F80934E01089580914F018031DE
:1016A00038F58F5F80934F0108958091500180310C
:1016B000F8F48F5F80935001089580914D0191E07F
:1016C000892780934D01089580914C0191E08927ED
:1016D00080934C01089580914B0191E0892780937C
:1016E0004B01089580914A0191E0892780934A0136
:1016F0000895E0915201E73008F03FC0F0E0ED5767
:10170000F44F0C946D128A0B920B9A0BA20BA90B3F
:10171000B00BB70B80914E01882379F181508093F3
:101720004E01089580914F01882339F181508093B3
:101730004F010895809150018823F9F081508093E2
:101740005001089580914D0191E0892780934D01CA
:10175000089580914C0191E0892780934C01089570
:1017600080914B0191E0892780934B0108958091EE
:101770004A0191E0892780934A010895089590E0F5
:1017800080E008951F920F920FB60F9211248F934D
:101790009F938091E1009091E100937F9093E1000D
:1017A00083FF0FC01092E90091E09093EB0010923C
:1017B000EC0092E39093ED001092680198E0909312
:1017C000F00082FF22C093E09093E9009091F20034
:1017D000992319F09AE39093E80090915901992385
:1017E00041F090915901915090935901911101C08C
:1017F0005D9A90916701992341F090916701915012
:1018000090936701911101C0289A84FF18C08091BC
:10181000E2008E7E81608093E2008091E1008F7E05
:101820008093E10080915A018E7E806180935A01FD
:101830009F918F910F900FBE0F901F90189580FF72
:10184000F7CF8091E2008E7E80618093E2008091EC
:10185000E1008E7E8093E10080915A018E7E81604E
:10186000E5CF1F920F920FB60F921124CF92DF9205
:10187000EF92FF920F931F932F933F934F935F939A
:101880006F937F938F939F93AF93BF93EF93FF9348
:10189000CF93DF93CDB7DEB76C97DEBFCDBF10928D
:1018A000E9008091E80083FF25C068E0CE014596FD
:1018B0000E94B50782EF8093E8008D8987FF39C0C9
:1018C0009091E80090FFFCCF982F907609F034C1FA
:1018D0009E894F89588D2F89F88C911131C080389D
:1018E00061F5809158018093F1001092F1008EEF24
:1018F0008093E8006C960FB6F894DEBF0FBECDBFA4
:10190000DF91CF91FF91EF91BF91AF919F918F9117
:101910007F916F915F914F913F912F911F910F9107
:10192000FF90EF90DF90CF900F900FBE0F901F9021
:1019300018959EEF9093E800C7CF1092F100D5CF95
:10194000913059F48111D3CF4130510581F6809106
:1019500058018D7F80935801CACF933049F481118B
:10196000C6CF4130510519F6809158018260F2CFFF
:10197000953041F48091E80080FFFCCF20682093EF
:10198000E300B5CF963009F0A9C00B8D1C8D22E085
:101990001092E9001092560110925501F2122EC0D9
:1019A00010925401109253010E9484071F8299E003
:1019B0009983FA8291E09E8390EA98879AEF9987BB
:1019C0002091550130915601275F3F4F3C832B8377
:1019D0008D831092E90010925601109255011093D8
:1019E00054010093530149E050E0BE016F5F7F4F07
:1019F00080E00E945E070E94840779CF1093540113
:101A0000009353010E949B06DC0112960D911C91DC
:101A10000115110509F451C1D801ED91FC91048023
:101A2000F581E02DBE016B5E7F4FC80109950097DF
:101A300009F03EC1F80100851185EACFF3E0FF12FD
:101A40000EC08F89882309F440C0823061F440E8D9
:101A500067E087E29CE00E94AD0E811148CF81E2F1
:101A60008093EB0047CF813029F440E86BE08BE1B5
:101A70009CE0F1CF833099F70E949B06DC0112961F
:101A8000ED90FC908E010F5F1F4F6801E114F1048F
:101A900079F0D701ED91FC910680F781E02DB80136
:101AA000C7010995080F111DF701E084F184EECFFD
:101AB000D8011C92F60101900020E9F73197BF018F
:101AC0006C197D0940E0C601C6CF65E07CE0FB01F2
:101AD000449150E080E80E945E0709CF973009F4F6
:101AE000BECF983021F481E08093F10000CF99308F
:101AF00009F0FDCE837009F0B2CFEEE0F1E081E0B5
:101B000031E096E32191222371F08093E900309334
:101B1000EB00DF0111972C912093EC009093ED00E6
:101B20008F5F873079F78EE78093EA001092EA00A2
:101B30008F8980936801DBCE8B8D9C8D1092E9009C
:101B400010925601109255019093540180935301C5
:101B5000898D811192C08E899D89913A49F4813293
:101B600009F07DCF47E050E065E071E080E0B3CF61
:101B7000913209F074CF833269F48F89988DB0E087
:101B8000A0E08093010190930201A0930301B09320
:101B90000401ADCE803269F48091E80082FFFCCF71
:101BA00067E085E091E00E94B5078BEF8093E80045
:101BB0009ECE823209F09BCE8F8980930C01EEEF8E
:101BC000FFE7859194918B3F9C4D51F1E0E0F8E067
:101BD0008091050190910601A0910701B091080143
:101BE000803B9440A105B105F1F480910C0180FD8A
:101BF0001AC0EE3F8AE0F80789F587E797E79183F7
:101C00008083809160008093570188E19BE00FB64C
:101C1000F894A895809360000FBE9093600067CE03
:101C2000EEEFFAE0D5CF808191818737974709F0B1
:101C30005ECEA8958091600088618093600080915D
:101C4000570180936000EE3F2AE0F20789F080910F
:101C5000FE0A9091FF0A9183808349CE8081918111
:101C60008737980751F29093FF0A8093FE0AC5CFF9
:101C70001092FF0A1092FE0A3ACE0E949B06DC01E7
:101C800012960D911C910115110509F4E8CED801A9
:101C9000ED91FC910190F081E02DBE016B5E7F4FD4
:101CA000C8010995811123CEF80100851185EBCF7C
:101CB000181619060CF41BCED2CEF1E0FF12BECEE0
:101CC00069E07CE004CF0F920FB68F939F93EF9360
:101CD000FF93809139018D5F8D3708F08D57809388
:101CE0003901E6E4F1E080818E4F808391819F4F3E
:101CF000918382818F4F828383818F4F8383EAE335
:101D0000F1E080818F5F808381818F4F8183828129
:101D10008F4F828383818F4F83838FB18F606699CA
:101D20001C9B88278F3681F480913801981B963050
:101D300068F0E0E0F8E087E78083818388E18093C2
:101D40006000F0936000FFCF90933801FF91EF9116
:101D50009F918F910FBE0F901895EF92FF920F9366
:101D60001F93CF93DF93F82E192FE62E042F81E0D7
:101D7000860F880F0E94300783E00E943007CF2D26
:101D8000D12FEC0EFD2EF11CCE15DF05B9F007FFAB
:101D900013C0FE0184910E943007182F80E00E943A
:101DA0003007812321968111EFCFDF91CF911F91D1
:101DB0000F91FF90EF9008958881EDCF81E0F5CFEE
:101DC000E9E6F5E01382128288EE93E0A0E0B0E04D
:101DD00084839583A683B78388E191E09183808390
:101DE0008FEF9FEF95878487E9EBF5E013821282EE
:101DF0008AE291E0918380830895789483E084BDA2
:101E000083E085BD81E080936E00E1E8F0E083E04F
:101E10008083E0E881E08083E1E983E08083E0E99A
:101E200081E08083E1EC87E08083E3EC81E08083E4
:101E3000E0EC82E08083E2EC81E08083EAE787E007
:101E400080838068808310926801109258011092FC
:101E50005A018091D70081608093D70080EA8093F7
:101E6000D80089B5806189BD89B5826089BD09B412
:101E700000FEFDCF81E090E00E94EF078091D80046
:101E80008F7C80618093D8008091E000807F809378
:101E9000E0008091E1008E7E8093E1008DE08093F0
:101EA000E200559A209A81EC80937C0081E785B905
:101EB00087E684B985E38BB98FE38AB9769A6E9801
:101EC00080EF81BB10BA80E58CBD81E08DBD85E0DF
:101ED0000E949A0A599A85E00E949A0A5C98ECE559
:101EE000F6E085918EBD00000DB407FEFDCFE6360D
:101EF000C1F75C9A81E88093640081E0809365007B
:101F00000E94310B80E80E94260B8823A9F05C9880
:101F100085EA8EBD00000DB407FEFDCF5C9A2E98B9
:101F200058982D988091640080628093640081E0CD
:101F300083BF889513BEFCCF84E00E94260B8823C4
:101F4000B9F12D9884E80E94260B8823A1F02D9AE0
:101F500088EC0E949A0A58986FEF82E090E00E9405
:101F60005B1284EF91E00E94EF07589A84E80E9488
:101F7000260B8111FBCF84E10E94260B8823A1F060
:101F80002D9A88EC0E949A0A2E9860E082E090E0F8
:101F90000E945B1284EF91E00E94EF072E9A84E189
:101FA0000E94260B8111FBCF88EC0E949A0AC4CFB5
:101FB0002D9A82E090E00E945312882309F444C0D5
:101FC0003E9A579A81E090E00E945312282F247085
:101FD000F22E81FF0BC021112E98C1EFDFEF80E4BC
:101FE0000E94260B882399F12E9A589A82E30E9428
:101FF0009A0A0E949D0A8111F9CF84E6809300011C
:10200000AA24A39442E4E42E41E0F42E50E4952E59
:102010006BEAC62E64E0D62E00E010E0D1E086E048
:10202000B82E93E2892E21EF722E35E0632E809137
:102030004401882309F4A6C010924401011511053A
:10204000B1F30E940000EBCF3E985798BBCFFF2022
:1020500029F0C430D10511F42E9A589881E00E94DD
:1020600043064C2F4770B42E9E0173E0359527959B
:102070007A95E1F7C9019695982F882797958795C6
:1020800087599E4F70E060E02E3FEFEF3E0771F101
:102090008C010C561F4FDC0150E040E0FB01E45581
:1020A000FA4F6F01F601E40FF51FE491F0E04F01E4
:1020B0000B2C02C0880C991C0A94E2F72F3F3207C0
:1020C00039F05496EC905497E8285496EC92549733
:1020D000BB2021F0F801E080E928E0824F5F5F4FEC
:1020E0000F5F1F4F119648355105E1F62F5F3F4FA7
:1020F00080589F4F685A7F4F603B710529F60E94B8
:10210000310B8FE00E949A0A2196C931D10509F05E
:1021100066CFFF2011F0589A2D9880E991E00E9437
:10212000EF072D9A81E090E00E94531280FF5ECF6E
:102130008AE090E00E9453129FEF980F9E3F08F0B4
:1021400055CF22E330E0309341012093400128E352
:1021500030E030933F0120933E01CBE0D0E0682F88
:1021600089EB95E00E94A50ACE010E9453122196A8
:10217000C131D105A1F70E94310B88EE93E00E9496
:10218000EF0734CF9091460180914501F92FF81B5C
:102190008F2F20910001F21740F48F5F821708F013
:1021A0004DCFA3BE889513BE49CFD09344019093E1
:1021B0004501F7018081918101968083918341ECF3
:1021C00057E070E060E090E080E00E94710A80E2F9
:1021D0000E94260B882391F0C091520147EB57E0F3
:1021E00061E370E080E590E00E94870AC53008F462
:1021F0007CC0C150C0935201D093510180E40E9431
:10220000260B8823A1F0C09152014DEA57E061E30B
:1022100070E08BE590E00E94870AC33008F472C03A
:10222000C33009F068C060925201D093510180E838
:102230000E94260B882389F0C091520143EA57E09F
:102240006BE270E086E590E00E94870ACC2319F0EB
:10225000C150C0935201D093510180E10E94260BDE
:10226000882389F0C091520149E957E066E370E0A4
:1022700086E590E00E94870AC63018F4CF5FC093CD
:102280005201D093510188E00E94260B882361F00F
:102290004FE857E067E370E08CE690E00E94870A21
:1022A0000E94790BD093510184E00E94260B882371
:1022B00061F04FE857E06EE270E086E790E00E9440
:1022C000870A0E94340BD0935101E0915201E7300C
:1022D00020F5F0E0E259FE4E0C946D1285112912A2
:1022E0002E12331238123D124412C33008F084CF3C
:1022F0000E94790B81CFC63008F097CFCF5FC09393
:10230000520193CF0E94340B90CF41E757E070E029
:1023100060E090E080E00E94710AC0914E01CB9D88
:10232000C00111244DEA56E06FEF7FEF44960E9402
:10233000710A50904F015B9CC00111244DEA56E098
:102340006DE070E044960E94710A409050014B9CF1
:10235000C00111244DEA56E06BE170E044960E9402
:10236000710A80914D0149E956E0811102C045E8AA
:1023700056E06CE270E080E190E00E94710A80918A
:102380004C0149E956E0811102C045E856E066E398
:1023900070E080E190E00E94710A80914B018823F7
:1023A00041F047E756E06EE270E080E390E00E9483
:1023B000710A80914A01882341F047E756E06EE2B6
:1023C00070E086E490E00E94710A0E94310B8091D7
:1023D0005101882309F432CEE42DF0E0EA59F94F97
:1023E0009491E52DF0E0EA59F94F8491EC2FF0E05B
:1023F000EA59F94FC49184BCE82FE095E8BD70928A
:10240000800090938800C0938A0080914D018823BA
:1024100009F441C0289880914C01882309F43DC0FB
:102420005D9882E390E020914B012223C1F128B115
:10243000292528B920914A01222399F12BB120584E
:102440002BB9F6013197F1F7019769F71092510115
:10245000F5CD43E557E06EE070E05BCF45E357E034
:102460006CE170E056CF45E257E06CE270E051CF8E
:1024700045E157E066E370E04CCF49EE56E06CE290
:1024800070E082E290E047CF4DEB56E06CE270E006
:1024900088E390E040CF289ABECF5D9AC2CF46989D
:1024A000C9CF5F9ACECFF999FECF92BD81BDF89A80
:1024B000992780B50895262FF999FECF92BD81BD49
:1024C000F89A019700B4021639F01FBA20BD0FB672
:1024D000F894FA9AF99A0FBE0895EE0FFF1F05902F
:0A24E000F491E02D0994F894FFCF69
:1024EA0010FFFFFFFF00E100000000000000C180B4
:1024FA008100000000000000AF060308D006C506F0
:10250A001607D406F20600000000A50AC207BF0B90
:02251A00BE0BF6
:00000001FF
