:100000000C94BE060C94E6060C94E6060C94E606E8
:100010000C94E6060C94E6060C94E6060C94E606B0
:100020000C94E6060C94E6060C9487210C94F621B9
:100030000C94E6060C94E6060C94E6060C94E60690
:100040000C94E6060C94E6060C94E6060C94E60680
:100050000C94E6060C94E6060C94E6060C94282410
:100060000C94E6060C94E6060C94E6060C94E60660
:100070000C94E6060C94E6060C94E6060C94E60650
:100080000C94E6060C94E6060C94E6060C94E60640
:100090000C94E6060C94E6060C94E6060C94E60630
:1000A0000C94E6060C94E6060C94E6062018FFFE77
:1000B0007FFF8000000180000001F007E00F80005A
:1000C00000018000000187FC3FE18000000180000A
:1000D0000001F003C0018003C1FF8003C03F8FFF18
:1000E000C0038003FC0380000003FC000003C00C7D
:1000F00001FFC00C003FCFFC030FC00F030FC00374
:10010000C00FFC00000FFFC0000FFFFFFF0F181013
:10011000FFE7FF80000180000180000183FFC180B4
:100120000001800001F8001F8000018000018FC3E2
:10013000F1800001800001F03C0FF3FFCFF3FFCF0F
:100140001810FFE7FF800001800001803C01800063
:100150000180000187E7E1800001800001FC183F79
:10016000E00007E00007E0FF07E00007E00007FF0E
:10017000C3FF1810FFE7FF8000018000018000012D
:1001800080000183FFC1800001800001FC003F80EE
:10019000000180000187FFE1800001800001F8007C
:1001A0001FFFC3FF100AFE7F800180018FF18001D5
:1001B0008001FC3F800180019FF90806FC84ECDC93
:1001C00084FC100A00003FE03FE03DA03DA03FE07E
:1001D0003FE03FE038E038E0100A00003FE03FE059
:1001E0003DA03DA03FE03FE03FE03FE001C0100AFE
:1001F0003FE03FE03DA03DA03FE03FE03FE03FE08B
:100200000F000700100A3FE03FE03DA03DA03FE0A7
:100210003FE03FE03FE007800700100A3FE03FE09B
:100220003DA03DA03FE03FE03FE03FE00F800E00FB
:10023000100A3FE03FE03DA03DA03FE03FE03FE04F
:100240003FE01DC01C000808007E6C6C7E7E7E6650
:1002500008087E6C6C7E7E3C3C0C08087E6C6C7ED4
:100260007E38381808087E6C6C7E7E1C1C180808C6
:10027000007E6C6C7E7E3C3018030038000000006D
:100280000038001804000000003800003800003872
:10029000001803000000001E000008001802000003
:1002A00000001C00180501002001FFE001D7E0015B
:1002B000FFE0010020180400C7E000FFE000C7E0F5
:1002C000007C00180500008000FFA800FFFC00FF74
:1002D000A8000080180500002000FFF000FC0000CE
:1002E000FC0000FFF0180500001000C7F000C7F088
:1002F00000C7C000FC0018040000100063F0007F7D
:10030000F0007C0018040000040021FC0037F0001D
:10031000310018040000C000FFFE00FFE000E30011
:1003200018040000800000F80001F80001C0180364
:100330000000F00001E00001001806C00000F0001D
:10034000007C00001F0000078000018000080900F9
:100350007E7E7E7E7E7E7E6608097E7E7E7E7E7EC0
:100360003C3C0C08097E7E7E7E7E7E38381808096B
:10037000007E7E7E7E7E1C1C180809007E7E7E7EAE
:100380007E7E3C3000000000003E5B4F5B3E3E6BDB
:100390004F6B3E1C3E7C3E1C183C7E3C181C577D1F
:1003A000571C1C5E7F5E1C00183C1800FFE7C3E76B
:1003B000FF0018241800FFE7DBE7FF30483A060E7D
:1003C0002629792926407F050507407F05253F5AC4
:1003D0003CE73C5A7F3E1C1C08081C1C3E7F142234
:1003E0007F22145F5F005F5F06097F017F006689DF
:1003F000956A606060606094A2FFA29408047E0425
:100400000810207E201008082A1C08081C2A08084A
:100410001E101010100C1E0C1E0C30383E3830060A
:100420000E3E0E06000000000000005F0000000706
:10043000000700147F147F14242A7F2A1223130834
:10044000646236495620500008070300001C224110
:10045000000041221C002A1C7F1C2A08083E0808B4
:100460000080703000080808080800006060002064
:10047000100804023E5149453E00427F4000724947
:100480004949462141494D331814127F10274545EB
:1004900045393C4A49493141211109073649494901
:1004A00036464949291E000014000000403400006F
:1004B00000081422411414141414004122140802D8
:1004C000015909063E415D594E7C1211127C7F494B
:1004D0004949363E414141227F4141413E7F4949A0
:1004E00049417F090909013E414151737F080808CC
:1004F0007F00417F41002040413F017F081422419D
:100500007F404040407F021C027F7F0408107F3EF6
:100510004141413E7F090909063E4151215E7F0963
:10052000192946264949493203017F01033F4040CA
:10053000403F1F2040201F3F4038403F63140814B5
:100540006303047804036159494D43007F414141ED
:100550000204081020004141417F040201020440CE
:1005600040404040000307080020545478407F2852
:100570004444383844444428384444287F38545448
:10058000541800087E090218A4A49C787F0804046B
:100590007800447D40002040403D007F102844000A
:1005A00000417F40007C047804787C08040478389B
:1005B00044444438FC1824241818242418FC7C08CB
:1005C000040408485454542404043F44243C404048
:1005D000207C1C2040201C3C4030403C44281028FB
:1005E000444C9090907C4464544C44000836410044
:1005F0000000770000004136080002010204023CBE
:100600002623263C1EA1A161123A4040207A38548C
:100610005455592155557941215454784121555407
:10062000784020545579400C1E5272123955555558
:1006300059395454545939555454580000457C4143
:100640000002457D420001457C40F0292429F0F05C
:10065000282528F07C545545002054547C547C0AAD
:10066000097F4932494949323248484832324A487A
:1006700048303A4141217A3A42402078009DA0A07A
:100680007D39444444393D4040403D3C24FF2424CE
:10069000487E4943662B2FFC2F2BFF0929F620C0EB
:1006A000887E090320545479410000447D4130483C
:1006B000484A32384040227A007A0A0A727D0D197F
:1006C000317D2629292F28262929292630484D40E1
:1006D00020380808080808080808382F10C8ACBADD
:1006E0002F102834FA00007B000008142A1422225C
:1006F000142A14089500220095AA005500AAAA55AC
:10070000AA55AA000000FF00101010FF00141414D6
:10071000FF001010FF00FF1010F010F0141414FC74
:10072000001414F700FF0000FF00FF1414F404FC91
:10073000141417101F10101F101F1414141F001072
:100740001010F0000000001F101010101F101010EB
:1007500010F010000000FF101010101010101010FA
:10076000FF10000000FF140000FF00FF00001F103A
:10077000170000FC04F414141710171414F404F4F4
:100780000000FF00F714141414141414F700F714E5
:100790001414171410101F101F141414F414101034
:1007A000F010F000001F101F0000001F14000000D8
:1007B000FC140000F010F01010FF10FF141414FFD0
:1007C000141010101F00000000F010FFFFFFFFFFCB
:1007D000F0F0F0F0F0FFFFFF0000000000FFFF0F5F
:1007E0000F0F0F0F38444438447C2A2A3E147E02EF
:1007F000020606027E027E02635549416338444484
:100800003C04407E201E2006027E020299A5E7A538
:10081000991C2A492A1C4C7201724C304A4D4D30A9
:100820003048784830BC625A463D3E494949007ECE
:100830000101017E2A2A2A2A2A44445F4444405165
:100840004A444040444A51400000FF0103E080FF19
:10085000000008086B6B083612362436060F090FA5
:1008600006000018180000001010003040FF0101C1
:10087000001F01011E00191D1712003C3C3C3C00EA
:1008800000000000F0F89C8E8783878E9CF8F000B3
:1008900000FEFF0303030303070EFCF80000FEFF46
:1008A0000303030303070EFCF80000FFFF00000032
:1008B00000000000FFFF0000FEFF8383838383C7E7
:1008C000EE7C380000F8FC0E07030303070EFCF86B
:1008D00000003F7FE0C08080C0E07F3FFFFF01015C
:1008E0000101010101FFFF0000FFFF0C0C0C0C1CBB
:1008F0003E77E3C100007FFFC0C0C0C0C0E0703FD2
:100900001F00001F3F70E0C0C0C0E0703F1F00002C
:100910007FFFC1C1C1C1C1E3773E1C00001F3F7012
:10092000E0C0C0C0E0703F1F000000000001FFFFFA
:10093000010000008D14A1C881CFD9F102AF4C4F46
:10094000434B454421004E65787420756E6C6F638F
:100950006B3A2000401E0000000000000000000074
:1009600000FFFFFFFFF000000081320408100000CC
:10097000009F3264F990000000813204383000009A
:1009800000F9327CF99000000081027C099000009F
:1009900000FFFFFFFFF000000081020408100000CC
:1009A000009F326739F00000009F06073870000092
:1009B000009F326739F00000008132673810000074
:1009C00000FFFFFFFFF0000000604C93206060001C
:1009D00000264C91264001F80020CC9226400DF8CC
:1009E00020A64C932640810FE4204093204001BF75
:1009F000803FFFFFFFC001F80007FFFFFE0001F886
:100A00000000FFFFF00001F800001FFF80000198C8
:100A1000000003FC0000FFFFF00000600000000089
:100A20000800000000000000080000000000C30CE7
:100A300008000000000034D3480000000000CB2C68
:100A4000B8000000000053636F72653A2000112067
:100A500053656C656374206D617020100008067C1E
:100A6000E0C0E0FC7C0806FC000000FCFC0806F48A
:100A7000FCBCF8FCDC08067C80808094E80806FC5E
:100A8000000018A4580806FC10284480FC0806FC46
:100A900024FC90FC484C415354204D415020554E6D
:100AA0004C4F434B454421004C4153455220554E39
:100AB0004C4F434B454421004449534B20554E4C29
:100AC0004F434B454421004E4557204D4150205542
:100AD0004E4C4F434B45442100414B494D424F2022
:100AE000554E4C4F434B454421004752454E4144DF
:100AF000455320554E4C4F434B454421004D4143F7
:100B000048494E4547554E20554E4C4F434B454462
:100B10002100534E4950455220554E4C4F434B45B2
:100B20004421004E4557204D415020554E4C4F43D7
:100B30004B454421004D494E455320554E4C4F43A3
:100B40004B454421005245564F4C56455220554E78
:100B50004C4F434B45442100434C554220554E4C8D
:100B60004F434B45442100524F434B45545320556E
:100B70004E4C4F434B454421004E4557204D41506C
:100B800020554E4C4F434B4544210053484F54474A
:100B9000554E20554E4C4F434B45442100260132C3
:100BA0000072013200B80132004B023200E402321E
:100BB000002A02320088013200D20132006E023275
:100BC00000100332005D013200B80132000B023226
:100BD00000BA0232007003320000805249464C4590
:100BE00020554E4C4F434B454421004D494E450046
:100BF000524F434B4554004752454E414445004CEB
:100C000041534552004449534B004D414348494EDE
:100C10004547554E005249464C450053484F5447AE
:100C2000554E00534E49504552005245564F4C5672
:100C3000455200414B494D424F00504953544F4C8F
:100C400000434C554200060132000B023200008086
:100C500047414D45204F5645522100080B000202E6
:100C60000200000904000001020200000524001037
:100C700001052401010104240206052406000107E0
:100C800005810310004009040100020A000000076A
:100C9000050202400000070583024000000403092A
:100CA0000412010002EF02014041233680000101DD
:100CB00002030141726475696E6F204C4C43004120
:100CC00042413131303600D0003200C4003200B928
:100CD000003200AF003200A50032009C00320093C9
:100CE0000032008B003200830032007B00320000B3
:100CF00080880132009F013200B801320000805725
:100D00004541504F4E204348454154004E455720E1
:100D10004849474853434F52452100B900EE02006D
:100D200080100332000080A50032009C0032009346
:100D300000320000804B0232002A0232000B0232E5
:100D400000EE013200D2013200B801320000800B07
:100D50000232000080F70096000080DC00320000C4
:100D60008026013200DC006400D0006400C4003240
:100D7000000080B801B80B008000AF2411241FBE12
:100D8000CFEFDAE0DEBFCDBF11E0A0E0B1E0E6EFEB
:100D9000F0E602C005900D92AE3DB107D9F728E00C
:100DA000AEEDB1E001C01D92AA34B207E1F716E042
:100DB000CEEBD6E004C02197FE010E947330CD3BFC
:100DC000D107C9F70E941B250C9479300C940000C0
:100DD000CF92DF92EF92FF92CF93DF93FC012591A8
:100DE0003491AC014C5F5F4F50933506409334060D
:100DF0000296FC0185919491C4E3D8E062E370E02F
:100E00000E944B307D836C83B90190E080E00E94AA
:100E1000E92E6B017C0120E030E040E05FE30E94BE
:100E2000772F20E034E244E759E40E94D52DA70152
:100E300096010E94412E0E94BA2E6150710980E4F1
:100E400080939000709399006093980081E08E8366
:100E5000DF91CF91FF90EF90DF90CF900895CF92E8
:100E6000DF92EF92FF9280913808909139080097B5
:100E700009F056C080913A08882399F040913406D1
:100E800050913506CA010296909335068093340638
:100E9000FA0125913491211560E8360739F4109252
:100EA0003A08FF90EF90DF90CF9008954C5F5F4F2E
:100EB0005093350640933406FC018591949162E38A
:100EC00070E00E944B307093390860933808211508
:100ED000310519F410929000E4CFB90190E080E060
:100EE0000E94E92E6B017C0120E030E040E05FE3EE
:100EF0000E94772F20E034E244E759E40E94D52D88
:100F0000A70196010E94412E0E94BA2E61507109DC
:100F100080E4809390007093990060939800C1CF13
:100F200001979093390880933808892B09F0B9CF3D
:100F3000D1CFCF92DF92EF92FF92CF93DF93FC015C
:100F400025913491AC014C5F5F4F50933306409331
:100F500032060296FC0185919491C4E3D8E062E3E5
:100F600070E00E944B307E876D87B90190E080E091
:100F70000E94E92E6B017C0120E030E040E05FE35D
:100F80000E94772F20E034E244E757E40E94D52DF9
:100F9000A70196010E94412E0E94BA2E615071094C
:100FA00084E08093C2007093BF006093D10081E021
:100FB0008F87DF91CF91FF90EF90DF90CF900895D2
:100FC000CF92DF92EF92FF92809141089091420878
:100FD000009709F056C080914308882399F040910A
:100FE000320650913306CA010296909333068093DD
:100FF0003206FA0125913491211560E8360739F45B
:1010000010924308FF90EF90DF90CF9008954C5FCF
:101010005F4F5093330640933206FC0185919491C3
:1010200062E370E00E944B30709342086093410885
:101030002115310519F41092C200E4CFB90190E0F6
:1010400080E00E94E92E6B017C0120E030E040E06E
:101050005FE30E94772F20E034E244E757E40E94E8
:10106000D52DA70196010E94412E0E94BA2E6150F3
:10107000710984E08093C2007093BF006093D10037
:10108000C1CF01979093420880934108892B09F0C2
:10109000B9CFD1CF9F92AF92BF92CF92DF92EF9212
:1010A000FF920F931F93CF93DF936C01FA0124916A
:1010B0003196E491803891050CF0D6C0603471050A
:1010C0000CF0D2C0022E000C330BC9018C0D9D1DFB
:1010D000181619060CF0C8C0FE2FDB01AE0FB11DAB
:1010E000E7FDBA951A161B060CF0BEC04E5F5F4FA7
:1010F000D9011796B7FD1796C3E0B595A795CA9580
:10110000E1F777FF0BC0FE2FF60FA69F9001A79F78
:10111000300D1124421B530B70E060E09B012F0F38
:10112000311DF7FD3A952134310514F0F0E4F61B3A
:10113000F0900E01E601D7FE02C0D0E0C0E00C2F17
:101140008138910514F080E890E0982F9E012C19C9
:101150003D09590187E0A822BB24E0E8CE2ED12C1E
:1011600002C0D594C794AA94E2F71C2D37FF02C0A1
:10117000295F3F4F83E0359527958A95E1F7420F28
:10118000531F9B012770332781E001C0880F2A95E8
:10119000EAF723E0759567952A95E1F77695762F1E
:1011A0006627779567956C0F7D1F6E5C7D4FE12CF0
:1011B0002F2FFF0F330BBB27E21613060CF054C082
:1011C000FA01D490F11016C0B02EEB01C12EB91661
:1011D00008F041C0AC2CAD2019F0A880A82AA88244
:1011E000C69429F43196D4906894CC24C7F8B3946B
:1011F0002196EDCFF1E0FF1218C0982E9094B02EFA
:10120000EB01C12EFA01B91630F5AC2CAD2019F066
:10121000A880A920A882C69429F43196D490689415
:10122000CC24C7F8B3942196EECFB02EEB01C12E9B
:10123000FA01B91680F4AC2CAD2019F0A880A826CC
:10124000A882C69429F43196D4906894CC24C7F827
:10125000B3942196EECF880F19F460587F4F81E048
:10126000E3944A0F5B1FA8CFDF91CF911F910F919D
:10127000FF90EF90DF90CF90BF90AF909F90089538
:1012800080E390E00895E2E3F2E030EB20E146E015
:101290005C983EBD4A95F1F72EBD20E8239507C026
:1012A000449140815C9A4EBD8111412D41934491FE
:1012B0002A95B1F73395383B49F744910DB4089519
:1012C00088E490E00895FC0180911102882311F1D7
:1012D0003FB7F89482E08093E9002091F200822FDA
:1012E00090E01816190614F481E090E0882339F094
:1012F000289844E6409310024091F1004083222355
:1013000039F02091F200211103C02BE62093E80070
:101310003FBF08958FEF9FEF08952FB7F89483E0B4
:101320008093E9009091E800892F807295FF04C0B6
:101330009091F20080E4891B2FBF089580910802EC
:1013400081110DC082E08093040284E08093050245
:10135000109207021092060281E08093080284E056
:1013600092E00895CF93DF931F92CDB7DEB76983E4
:10137000DC01ED91FC910280F381E02D41E050E031
:10138000BE016F5F7F4F09950F90DF91CF91089558
:1013900083E08093E9008091F200882319F08AE3CA
:1013A0008093E80008950E948D0990E00895CF93FE
:1013B000DF931F92CDB7DEB7FC018485958597FD3D
:1013C00008C02FEF3FEF358724870F90DF91CF9133
:1013D0000895CE0101960E946309019719F489814D
:1013E00090E0F3CF8FEF9FEFF0CF0F931F93CF934A
:1013F000DF931F92CDB7DEB78C01FC018485958504
:1014000097FF0BC0CE0101960E946309019771F40A
:10141000898190E0F80195878487F8018485958516
:101420000F90DF91CF911F910F9108958FEF9FEF54
:10143000F1CFFC018485958597FD0BC09FB7F8948B
:1014400082E08093E9008091F2009FBF90E00196D6
:1014500008959FB7F89482E08093E9008091F200AC
:101460009FBF90E008954091FE015091FF012091AF
:10147000FC013091FD0142175307B4F49091E8004C
:101480009570E1F39091E80092FD19C08093F1000E
:101490008091FE019091FF0101968F739927892B0E
:1014A00019F48EEF8093E8008091FE019091FF0186
:1014B00001969093FF018093FE0181E0089580E002
:1014C0000895DF92EF92FF920F931F93CF93DF93D4
:1014D000D82E8A01EB017B01E40EF51ECE15DF0547
:1014E00059F0D7FE12C0FE0184910E94330A219662
:1014F0008111F4CF0FEF1FEFC801DF91CF911F9142
:101500000F91FF90EF90DF9008958881EECF0F93B9
:101510001F93CF93DF931F92CDB7DEB782E089830D
:1015200042E450E06BE57CE080E80E94610A0E94A2
:101530009E09DC0112960D911C910115110589F08F
:10154000D801ED91FC910280F381E02DBE016F5F27
:101550007F4FC801099597FD04C0F80100851185EA
:10156000ECCF89810F90DF91CF911F910F9108955A
:10157000615030F02091F100FC0120830196F8CFFA
:10158000289884E6809310020895AF92BF92CF927C
:10159000DF92EF92FF920F931F93CF93DF936C0133
:1015A0007B018B01040F151FEB015E01AE18BF0814
:1015B000C017D10759F06991D601ED91FC910190C6
:1015C000F081E02DC6010995892B79F7C501DF91DE
:1015D000CF911F910F91FF90EF90DF90CF90BF9030
:1015E000AF900895FC010E94890B319728F0685153
:1015F0007C4F8F4F9F4FF9CFAB01FC010E94890BAD
:10160000641775078E079F07C8F308958F929F92FE
:10161000AF92BF92CF92DF92EF92FF920F931F9300
:10162000CF93DF936C017B018A0180910D018823A8
:1016300009F45AC080911102882309F455C08091A1
:10164000030280FF05C08091E00082608093E0008B
:10165000E801B12C8AEFA82E93E0892E2AE3922E7E
:10166000209711F4BB20C9F10E948D09811108C097
:10167000AA94AA20C9F181E090E00E94F20AF0CF7A
:101680008C171D0611F00CF08C2F9FB7F8948092E8
:10169000E9002091E80025FD02C09FBFE1CF282F7F
:1016A00030E0C21BD30BF701815020F041914093F1
:1016B000F100FACFE20EF31EBB2021F09092E80079
:1016C000B12CEBCF8091E80085FDE7CF9092E80048
:1016D000BB24B394209709F3F3CF5D9884E68093FD
:1016E0000202101611063CF081E090E0F6019383AF
:1016F000828310E000E0C801DF91CF911F910F912C
:10170000FF90EF90DF90CF90BF90AF909F908F9021
:101710000895ADEEB1E02FB7F8947D918D919C9135
:1017200066B52FBFA89B05C06F3F18F47F5F8F4F32
:101730009F4F22E0660F771F881F991F2A95D1F7C8
:10174000089590E00C94F20A8FB18095807F669B9B
:1017500088601C9B84600895480F592F511D1416F2
:101760001506D4F580389105BCF597FF02C090E0CE
:1017700080E04138510514F040E850E0481BFB017F
:1017800077FD379633E0F595E7953A95E1F7F695CD
:10179000FE2FEE27F795E795E80FF91FEE5CFD4F5A
:1017A0006770772781E090E001C0880F6A95EAF7BB
:1017B000382F213041F4415078F08191DF011197A9
:1017C000832B8C93F8CF8095415030F09191DF01BD
:1017D000119798239C93F8CF089590911202982323
:1017E00029F490911302982381E009F480E0089590
:1017F000CF93C82F0E94A40B982F9C2381E09C13A9
:1018000080E0CF91089580389105B8F46034710577
:10181000A0F490E121E061FD24E060FD220F62FD73
:101820002295687F969FD0011124A80FAE5CBD4F12
:101830000C90022A40FF02260C9208952F923F92AC
:101840004F925F926F927F928F929F92AF92BF92D0
:10185000CF92DF92EF92FF920F931F93CF93DF937C
:10186000211114C0DF91CF911F910F91FF90EF9044
:10187000DF90CF90BF90AF909F908F907F906F90B0
:101880005F904F903F902F900C944A088A01662EEB
:10189000FA0194913196E491C92ED12C2601F7E0FA
:1018A0004F0E511C23E0559447942A95E1F781503F
:1018B000782E790E312CEE2EF12C832D032C000C7A
:1018C000990B8C159D050CF051C0C32D37FE02C03D
:1018D000C7E0C30DC595C595C595832D877887FF4E
:1018E00003C08150886F8F5F90E8892E912C02C0D1
:1018F000959487948A95E2F7212C0C2E000CDD0B31
:101900002296A72C072C000CBB08822D022C000C61
:10191000990B8E159F053CF5489EF001499EF00DF0
:10192000589EF00D1124EC0FFD1FE00FF11FE49104
:10193000F0E0E821F921EF2B69F0622D660D80912E
:101940000E01811109C0062E000C770B41E0C50184
:101950000E94030C2394D9CF8130E1F7062E000CAE
:10196000770B40E0F4CF7A943394A7CFDF91CF91F7
:101970001F910F91FF90EF90DF90CF90BF90AF90AD
:101980009F908F907F906F905F904F903F902F909F
:1019900008952F923F924F925F926F927F928F9213
:1019A0009F92AF92BF92CF92DF92EF92FF920F93EE
:1019B0001F93CF93DF93CDB7DEB729970FB6F89477
:1019C000DEBF0FBECDBF6D30D9F03090000140902A
:1019D000F4015090F501832D90E0998788876A3053
:1019E00051F51092F7011092F60123E0880F991F2C
:1019F0002A95E1F7480E591E5092F5014092F401E4
:101A000081E090E029960FB6F894DEBF0FBECDBFFF
:101A1000DF91CF911F910F91FF90EF90DF90CF90CA
:101A2000BF90AF909F908F907F906F905F904F90FE
:101A30003F902F9008959091F1019B83E0910E01CA
:101A4000EC83A090F601B090F701F5E06F9FB00134
:101A50001124CB018C579C4F3C016501198299815F
:101A6000212C953029F0C3010196F30124903C010B
:101A70004201F8E0FA8320FE1EC08C818D8302C0F3
:101A80002B812D8310E000E00315C8F4C601800F00
:101A9000911F9F838E83F12CE12CE31478F5B40120
:101AA0006E0D7F1D4D818E819F810E94030C9FEFE3
:101AB000E91AF90AF2CF9B81EC819E13E1CF2694BB
:101AC000EA81E150EA8388859985880E991EE111A3
:101AD000D2CF99819F5F9983E885F985CE0EDF1E6D
:101AE000963009F0BCCFC501F9813F9E800D911D54
:101AF00011249093F7018093F60182CF0F5F1F4F5F
:101B0000C3CF0F931F93CF93DF938C01D0E0C0E03E
:101B1000F801EC0FFD1F6491662341F084E398E027
:101B20000E94C90C892B11F02196F2CFCE01DF91D2
:101B3000CF911F910F910895DF92EF92FF920F9333
:101B40001F93CF93DF937C01D22E8B01040F111DC5
:101B5000EB0177FF02C0D0E0C0E0C80101341105FD
:101B600014F080E490E0C817D9073CF44D2DBE0175
:101B7000C7010E94030C2196F0CFDF91CF911F91F6
:101B80000F91FF90EF90DF900895EF92FF920F93E7
:101B90001F93CF93DF937C018B01C42FD22F60342E
:101BA000710518F421E00E94AC0BB8016D0F711D96
:101BB00061507109603471052CF421E04C2FC7018C
:101BC0000E94AC0B21E04D2FB801C7010E949C0D73
:101BD000C7018C0F911D21E04D2FB8010197DF91B6
:101BE000CF911F910F91FF90EF900C949C0D8091DD
:101BF000E501882321F01092E50180E0089520910D
:101C0000E9019091E601322F391B932F30910101A8
:101C1000931740F49F5F931790F491E093BF8895DA
:101C200013BE089581E08093E5012093E601E2EF81
:101C3000F1E08081918101968083918381E0089514
:101C40000196FC018491F0E38F9FC0011124089557
:101C500080E290E0089590E080E00895FC018585A1
:101C600018161CF08FEF9FEF089584E690E008951A
:101C7000FC01858518161CF08AE090E0089584E048
:101C800090E00895FC018385882319F080E590E0B9
:101C9000089580E490E00895FC018385882319F07D
:101CA00088E490E0089580E390E00895FC01818944
:101CB00090E09195819591090895FC0181898111A8
:101CC00003C088E290E008958AE090E0089588E0FB
:101CD00090E00895DC011B962C91293011F02E30F4
:101CE00039F4DC01ED91FC910684F785E02D09942F
:101CF00090E080E00895DC011B96EC91E350EC301D
:101D000040F4F0E0E15EFE4F8081082E000C990B5C
:101D100008958EE190E00895DC011B96EC91E2506D
:101D2000EC3040F4F0E0ED5EFE4F8081082E000CB8
:101D3000990B089585E090E0089580E890E008957B
:101D4000DC011B96EC91E350EC3088F4F0E0E555B3
:101D5000F14F0C947330C70EC70EB70EC40EB70EFA
:101D6000B70EC40EB70EC70EC70EC70EC40EFC01C9
:101D70008681978197FF03C091958195910941973D
:101D800034F482E090E0089585E090E0089590E0DA
:101D900080E00895CF93DF93DC011B96EC91E35034
:101DA000EC3058F5F0E0E952F14F0C947330FA0E34
:101DB000060FE30E060F090FFD0EFD0EFD0E060FBA
:101DC000090FFD0E090FEC01E881F9810280F38112
:101DD000E02D09954297ECF0E881F9810280F381CA
:101DE000E02DCE01099597FD019695958795DF9198
:101DF000CF91089588E190E0FACFDC01ED91FC915C
:101E00000280F381E02DDF91CF91099480E190E091
:101E1000EECF88E090E0EBCFDC011B96EC911B97B6
:101E2000EF3008F04FC0F0E0E85EF04F0C947330F4
:101E3000270F270F270F6E0F740F510F620F510FCF
:101E40003D0F4E0F270F650F740F710F3A0F169647
:101E50008D919C919C01295F3F4F2F30310508F4F3
:101E600046C097FF03C091958195910981319105F5
:101E70000CF43FC080E190E0089516968D919C91FE
:101E80009C01295F3F4F2F30310588F197FF03C038
:101E9000919581959109893191055CF188E190E0F6
:101EA000089516968D919C919C01295F3F4F2F308C
:101EB0003105E8F097FF03C0919581959109813232
:101EC0009105BCF080E290E008951C968C9128E08A
:101ED0008202C0011124813391055CF080E390E01F
:101EE000089580E091E0089580E690E0089588E00C
:101EF00090E00895EF92FF920F931F93CF93DF939B
:101F00008C01DC011296CD91DC917E01D7FF03C0DC
:101F1000B7E0EB0EF11C73E0F594E7947A95E1F7E6
:101F20008091FA019091FB01E81AF90AD801ED912C
:101F3000FC910280F381E02DC80109952091FA01FE
:101F40003091FB01C80FD91FD7FD279663E0D595C7
:101F5000C7956A95E1F7C21BD30BCE0DDF1DD7FFE6
:101F600008C081E0DF91CF911F910F91FF90EF901A
:101F70000895F8018281938197FD079653E0959526
:101F800087955A95E1F7821B930B853591054CF7A0
:101F9000D8011496CD91DC917E01D7FF03C0B7E044
:101FA000EB0EF11C43E0F594E7944A95E1F780913C
:101FB000F8019091F901E81AF90AD801ED91FC9124
:101FC0000480F581E02DC80109954091F8015091F8
:101FD000F901C80FD91FD7FD279633E0D595C795CE
:101FE0003A95E1F7C41BD50BCE0DDF1DD7FDB9CF58
:101FF000F8018481958197FD079623E09595879553
:102000002A95E1F79C01241B350B81E02133310532
:102010000CF0A8CF80E0A6CF84E690E0089585E09C
:1020200090E0089580E00895FC01249130E0295F5C
:102030003F4F53E0359527955A95E1F7429FD001E0
:10204000439FB00D1124E62FF0E073E0F595E7957E
:102050007A95E1F73296EA0FFB1FE80FF91F84919A
:10206000677020E830E002C0359527956A95E2F761
:10207000E82FF0E0E223F32381E0EF2B09F480E086
:102080000895EF92FF920F931F93CF93DF939C01DC
:10209000EA01CB01049700E310E0B8010E945F3031
:1020A0007B01F90184913196E49186171706A9F016
:1020B000A0F0CE010497B8010E945F30E617170622
:1020C00061F058F0462F6E2DC901DF91CF911F911D
:1020D0000F91FF90EF900C94141080E0DF91CF915E
:1020E0001F910F91FF90EF9008958F929F92AF9262
:1020F000BF92CF92DF92EF92FF920F931F93CF93F5
:10210000DF938C016B014A01E9015B01A20EB31E52
:10211000A501BC018091290290912A020E944110E0
:10212000882379F091E0892FDF91CF911F910F9152
:10213000FF90EF90DF90CF90BF90AF909F908F90E7
:1021400008957801E80CF91CA501B70180912902D6
:1021500090912A020E9441108111E4CFA601B7019B
:102160008091290290912A020E9441108111DACFB8
:10217000A601B8018091290290912A020E94411083
:102180008111D0CF81E3881691042CF4C133D1059D
:10219000DCF490E0C8CF95948794800E911EA60140
:1021A000B4018091290290912A020E94411081116C
:1021B000B9CFA501B4018091290290912A020E9411
:1021C0004110882319F3AECFD595C795CC0DDD1DF1
:1021D000AE01B8018091290290912A020E9441101B
:1021E0008111A0CFAE01B7018091290290912A02FE
:1021F0000E94411091E0811196CFCBCFCF92DF9218
:10220000EF92FF920F931F93CF93DF93EC01E8813E
:10221000F9810680F781E02D099528853985820F9F
:10222000931F99878887EE80FF80E881F981028477
:10223000F385E02DCE01099504E610E09801281BF6
:10224000390B2E9DC0012F9D900D3E9D900D1124A8
:10225000B8010E945F307F836E83E884F984E8814F
:10226000F9810484F585E02DCE0109959801281B9C
:10227000390B2E9DC0012F9D900D3E9D900D112478
:10228000B8010E945F30798768870E811F81E881DD
:10229000F9810084F185E02DCE0109959195819514
:1022A0009109E881F981081719070CF0B6C000847C
:1022B000F185E02DCE0109959195819591099F8336
:1022C0008E8308851985E881F9810084F185E02DE8
:1022D000CE010995919581959109E881F9810817B9
:1022E00019070CF0AFC00084F185E02DCE010995EF
:1022F000919581959109998788878A819B812E8103
:102300003F81820F931F9B838A83E881F981068432
:10231000F785E02DCE01099597FFA9C010E08C81CB
:102320009D8128853985820F931F9D838C83E88149
:10233000F9810684F785E02DCE01099597FD5BC0F4
:10234000888599850FEF181619060CF401E0E881CD
:10235000F9810480F581E02DCE0109957C01E881A9
:10236000F9810280F381E02DCE0109956C817D8198
:102370009701AC018A819B810E947510F82E8823F9
:10238000D1F1002E000C110B8C819D81801B910BD3
:102390009D838C83E881F9810480F581E02DCE0155
:1023A00009956C01E881F9810280F381E02DCE016D
:1023B00009956C817D819601AC018A819B810E9487
:1023C00075108111E1CF08851985E881F9810088B0
:1023D000F189E02DCE0109959C01029FC001039F68
:1023E000900D129F900D11246CE97FEF0E945F30D9
:1023F000798768871F2D8E819F81181619060CF02A
:1024000092C081E08A87812FDF91CF911F910F9138
:10241000FF90EF90DF90CF9008950E811F81008490
:10242000F185E02DCE0109958017910744F4E881EC
:10243000F9810084F185E02DCE01099540CF8E8190
:102440009F813DCF088519850084F185E02DCE015F
:1024500009958017910744F4E881F9810084F1859A
:10246000E02DCE01099547CF8885998544CF8E818F
:102470009F810FEF181619060CF401E0E881F9812D
:102480000480F581E02DCE0109957C01E881F98178
:102490000280F381E02DCE0109956C817D81970149
:1024A000AC018A819B810E947510182F882309F442
:1024B00035CFE02E000FFF088A819B818E199F097E
:1024C0009B838A83E881F9810480F581E02DCE0128
:1024D00009956C01E881F9810280F381E02DCE013C
:1024E00009956C817D819601AC018A819B810E9456
:1024F00075108111E1CFEE80FF80E881F9810684BB
:10250000F785E02DCE0109959C01E29EC001E39E76
:10251000900DF29E900D11246CE97FEF0E945F30C8
:102520007F836E83FCCE892B09F46DCF8FEF6ACF4A
:1025300008958F929F92AF92BF920F931F93CF9364
:10254000DF93CDB7DEB7A1970FB6F894DEBF0FBE0D
:10255000CDBF19A2423008F44AE08E010F5D1F4F33
:10256000842E912CB12CA12CA50194010E94A32DA5
:10257000E62FB901CA01EA3044F5E05DD801EE93D7
:102580008D01232B242B252B79F790E080E01097E9
:1025900069F0FD0101900020E9F73197AF014A1B76
:1025A0005B0BBD0184E398E00E94C50AA1960FB6BB
:1025B000F894DEBF0FBECDBFDF91CF911F910F9179
:1025C000BF90AF909F908F900895E95CD7CFDF9236
:1025D000EF92FF920F931F93CF93DF9300D000D021
:1025E00000D01F92CDB7DEB721E020932E0725E063
:1025F000880F991F2A95E1F790932407809323076A
:1026000080EE9FEF90932607809325071092230278
:1026100080912F07E0913102F0E0E25EFD4F908162
:10262000981750F480838CE09DE090931D02809376
:102630001C0284E38093230280911B028983809192
:102640001A028A8380911E028B8380911F028C83E1
:10265000809120028D83809121028E8380912202BD
:102660008F83CE0101967C0101E112E0F701D19048
:102670007F01C8010E94492DD81621F06D2DC80197
:102680000E94632D0F5F1F4F0831F2E01F0771F7A3
:1026900027960FB6F894DEBF0FBECDBFDF91CF9166
:1026A0001F910F91FF90EF90DF900895CF92DF92EE
:1026B000EF92FF926B017C01C114D104E104F1049B
:1026C00041F00E94F12CA70196010E94712D6B012F
:1026D0007C01C701B601FF90EF90DF90CF90089585
:1026E0004F925F927F928F929F92AF92BF92CF92C2
:1026F000DF92EF92FF920F931F93CF93DF937C01B2
:102700006B018A01722EE0E3F7E0D0E0C0E084853F
:10271000811138C22DE02C9FC0012D9F900D1124F6
:102720009C01205D384F5901D9011B967C92EDEF39
:10273000E70D89E190E0EC3038F4F0E0E55AFE4F27
:102740008081082E000C990B9DE09C9FF0019D9FBD
:10275000F00D1124E05DF84F8487B5E07B1631F071
:102760007B1680F089EF870D823060F482E090E084
:10277000909328028093270281E090E090932602B4
:1027800080932502EEEFE70DED3008F0B1C1F0E0E7
:10279000E453FC4E0C9473303214CE14D9137815D4
:1027A0002F157815F6139F1478156B14951478155A
:1027B0003C158DE08C9FF0018D9FF00D1124E05DA4
:1027C000F84FC80155E0880F991F5A95E1F7978394
:1027D0008683A0912A07B0912B0718968D919C9122
:1027E0009187808738E1C30ED11C8AC061E170E017
:1027F00080E090E00E9456132DE02C9FA0012D9FB9
:10280000500D1124FA01E05DF84F4F0120E3209FA5
:10281000A001219F500D1124DC01CB010897A109D3
:10282000B109840F951F9783868361E270E080E091
:1028300090E00E9456136051710981099109D401F9
:1028400019967C936E931897E0912A07F0912B07C5
:10285000228586819781B0E22B028019910911248B
:102860009783868361E170E080E090E00E945613D8
:102870002DE02C9FA0012D9F500D1124FA01E05D49
:10288000F84F4F0120E3209FA001219F500D1124FC
:10289000DC01CB010897A109B109840F951F97832B
:1028A000868365E170E080E090E00E9456136A50F4
:1028B000710981099109D40119967C936E93189737
:1028C000B3E07B1609F47CC0B71508F439C1E2E027
:1028D0007E1699F087CF8DE08C9FF0018D9FF00DD3
:1028E0001124E05DF84F2AE1209FC001219F900D47
:1028F00011249783868311861086F0E2CF0ED11CB7
:1029000046E0741609F467C0471508F41FC18DEF3F
:10291000870D823008F457C02EE2209FC001219F0E
:10292000900D1124E80EF91E56C08DE08C9FF00129
:102930008D9FF00D1124E05DF84F22E3D5CFA091DB
:102940002A07B0912B078DE08C9FF0018D9FF00D31
:102950001124E05DF84F16968D919C91179797FD85
:10296000019695958795980145E0220F331F4A956A
:10297000E1F7820F931F978386838DE08C9FF00190
:102980008D9FF00D1124E05DF84F18968D919C916C
:1029900097FD019695958795809722CF8DE08C9F26
:1029A000F0018D9FF00D1124E05DF84FC80174E037
:1029B000880F991F7A95E1F7978386831186108691
:1029C00020E1C20ED11CC80155E0880F991F5A950D
:1029D000E1F7E81AF90A101611060CF0BEC0809152
:1029E0002A0790912B07DC01ED91FC910280F38185
:1029F000E02D09958E0D9F1D2DE02C9FF0012D9F40
:102A0000F00D1124E05DF84FA0912A07B0912B073B
:102A100016962D913C9137FF02C02F5F3F4F3595A1
:102A20002795820F931F938382838DE08C9FF00103
:102A30008D9FF00D1124E05DF84FD582C482DF91A7
:102A4000CF911F910F91FF90EF90DF90CF90BF90AB
:102A5000AF909F908F907F905F904F9008958DE002
:102A60008C9FF0018D9FF00D1124E05DF84F1782CF
:102A7000168211861086B6CE68E070E080E090E0A5
:102A80000E9456132DE02C9FA0012D9F500D112464
:102A9000FA01E05DF84F4F0122273327201B310B4D
:102AA000AB01BC01405F5F4F6F4F7F4FC901849FF7
:102AB0009001859F300D949F300D1124378326831C
:102AC000E0912A07F0912B074084518468E070E080
:102AD00080E090E00E945613605F7F4F8F4F9F4FC2
:102AE000461A570AD40119965C924E9218977ACEDC
:102AF00061E170E080E090E00E9456134DE04C9F51
:102B000090014D9F300D1124F901E05DF84F4F0108
:102B1000DC01CB010897A109B109980166E0220FF9
:102B2000331F6A95E1F7820F931F978386836BE0CB
:102B300070E080E090E00E94561365507109BBCEB2
:102B400085EF870D823008F4D8CE4CCE5EE075124A
:102B5000E3CE80E1E81AF10836CF8DE08C9FF001DA
:102B60008D9FF00D1124E05DF84F0190F081E02D74
:102B70000280F381E02DC5010995F701E81BF90BEF
:102B8000CF013ACF21963D96C431D10509F0BFCD92
:102B900056CF2091280785E02D3028F4E22FF0E071
:102BA000E25BFE4F808180932907E0912A07F09134
:102BB0002B074285042E000C550B648175818281A0
:102BC00093810E94701380912807823009F03FC0E2
:102BD000E0912A07F0912B074285042E000C550B3B
:102BE0006481758122E0828193810E947013E0915B
:102BF0002A07F0912B074285042E000C550B6481A7
:102C0000758120912807828193810E947013E09141
:102C10002A07F0912B074285042E000C550B648186
:102C2000758120912807828193810E947013E09121
:102C30002A07F0912B074285042E000C550B648166
:102C4000758120912807828193810E947013809161
:102C500028078A3081F4E0912A07F0912B074285FA
:102C6000552741950CF45095648175812AE0828145
:102C700093810E94701380912807813098F08330EF
:102C800010F0873079F4E0912A07F0912B07428504
:102C9000042E000C550B648175812EE08281938196
:102CA0000E947013E0912807ED3040F5F0E0E55AFE
:102CB000F94E0C94733075167516721668167B16DD
:102CC0006C167E166C166C166F1675166F167816C7
:102CD00083E79DE00C94E80681E69DE0FBCF8BE561
:102CE0009DE0F8CF85E59DE0F5CF8FE49DE0F2CF44
:102CF00085E39DE0EFCF87E29DE0ECCF0895CF9292
:102D0000DF92EF92FF920F931F93CF93DF93809107
:102D10002E078111B5C08091150281508E3F60F45D
:102D20008FEF809327078091230790912407409786
:102D300090932407809323078091140281508E3F43
:102D400060F481E080932707809123079091240706
:102D50004096909324078093230780E80E94F80B05
:102D6000882301F180911302809312020E94A40B28
:102D70008093130280E10E94ED0B882399F08091EB
:102D800028078F5F6DE00E943F30909328071092D4
:102D90002F078FEF9CE090931D0280931C0280E22E
:102DA00080932302C0912107D091220780912902AC
:102DB00090912A020E94200E8C179D073CF480916E
:102DC0002707082E000C990B0E94E712609121073B
:102DD000709122076F5F7F4F28E430E040E350E0BE
:102DE00080911F07909120070E9475108111109209
:102DF0002D0788E00E94F80B882301F160912107DC
:102E0000709122076F5F7F4F28E430E040E350E08D
:102E100080911F07909120070E947510882309F464
:102E2000A1C080EE9FEF909326078093250781E055
:102E300080932C0781EF9CE00E94990780911902F2
:102E400081508E3FA0F4809125079091260797FF2F
:102E50000EC020912C07222351F020912D07222310
:102E600009F48EC0069790932607809325078091DA
:102E70002507909126071816190614F410922C07AE
:102E8000C0E3D7E04DE0D42E58E0C52E0AE010E0B4
:102E900062E0E62EF12C8C85882309F445C0CE0132
:102EA0000E94FE109C8591509C879B85933019F45D
:102EB000813009F41C868C85811136C0963021F052
:102EC000993011F0933081F5DB86E881F981028039
:102ED000F381E02DCE01099597FD01969595879593
:102EE0002A813B81281B390B3B832A83E881F981A6
:102EF0000480F581E02DCE01099597FD0196959509
:102F000087952C813D81281B390B3D832C83CC86F2
:102F10001093280200932702F0922602E0922502E5
:102F200087EC9CE00E94E8062D9688E0C433D80721
:102F300009F0B1CF80912907882321F18150809336
:102F40002907C09127078DE197E00E94FE10C093EA
:102F50002707DF91CF911F910F91FF90EF90DF90A6
:102F6000CF90089580912D07811168CF80EE9FEF5B
:102F7000909326078093250781E080932D0758CFF3
:102F80000C9771CF80912807813051F0883041F043
:102F900084E00E94F80B8823A1F20E94C915D1CFCA
:102FA0008091180281508E3F60F6F7CF2F923F92AA
:102FB0004F925F926F927F928F929F92AF92BF9249
:102FC000CF92DF92EF92FF920F931F93CF93DF93F5
:102FD00000E317E030ED232E33243A9444E6442EE8
:102FE000512CD8011C968C9118160CF0ECC0C1E93C
:102FF000D6E08D8518160CF0E0C0F8018681978127
:103000004396879738F48385863021F08B7F89300B
:1030100009F0D9C0D801ED91FC910480F581E02D33
:10302000C80109957C01D801ED91FC910280F381E2
:10303000E02DC80109955C01F801648075808280EB
:103040009380E881F9810480F581E02DCE01099516
:103050006C01E881F9810280F381E02DCE010995B0
:103060002A813B81820F931F8816990608F0A5C01C
:10307000A80CB91C2A153B0508F09FC08C819D81C6
:10308000C80ED91E6C147D0408F097C0E60CF71C1E
:103090008E159F0508F091C0D8011B968C91863043
:1030A00021F0893011F0833019F421E0F8012487F0
:1030B000843001F118F08B508430E0F0D80116967E
:1030C000ED90FC901797ED91FC910684F785E02D2B
:1030D000C8010995FC01EE9EC001EF9E900DFE9E79
:1030E000900D1124B2010E945F30D80117967C9395
:1030F0006E931697F8013385EDEFE30F81E090E0D2
:10310000EC3038F4F0E0EE5BFE4F8081082E000CCE
:10311000990B2D85422F022E000C550B481759078D
:103120000CF047C11D868D8518160CF450C13D303A
:1031300009F042C1EA80FB80E881F9810280F381D5
:10314000E02DCE01099597FD019695958795E80E9E
:10315000F91ED8011296CD90DC901397ED91FC9159
:103160000280F381E02DC801099597FD01969595A0
:103170008795C80ED91EEC18FD081E141F040CF00C
:1031800022C1EE24E394F12C68E070E080E090E04E
:103190000E945613685E7F4F8F4F9F4FE69E9001AF
:1031A000E79E300DF69E300D11243F832E83398625
:1031B000288681E29DE00E9499072E96F7E0CD31A6
:1031C000DF0709F016CF035F1F4F28E00433120713
:1031D00009F007CF8091240281508093240281114D
:1031E0008DC0A0912F07B0E022EE3FEF4FEF5FEFD1
:1031F0000E94902D22E330E040E050E00E94712DCB
:10320000245C2A300CF42AE020932402E1E9F6E061
:10321000D0E0C0E08485811117C18EE08C9F8001D1
:103220008D9F100D11240F56194FFF24F394D801D0
:103230001C96FC9266E070E080E090E00E945613DD
:10324000672B682B692B09F0F3C08091310288232A
:1032500009F4EEC0F801F3862EE02C9FC0012D9FEB
:10326000900D11248F56994FDC011B962C91211142
:10327000E9C022E03EE03C9F80013D9F100D1124FB
:103280000F56194FF8012587E0912902F0912A0283
:10329000F490D801ED91FC910280F381E02D099525
:1032A000B0E3FB9EF0011124F595E79597FD01969B
:1032B00095958795E81BF90BD8011396FC93EE932F
:1032C00012972EE02C9FC0012D9F900D1124EC0130
:1032D000CF56D94F1D821C8262E070E080E090E002
:1032E0000E94561324E1269FA001279F500D112410
:1032F000CA010A979F838E8319861886C1E9D6E092
:103300000DE117E040E3E42E54E1D52E8C858823AF
:10331000C1F1CE010E94FE10AC80BD8080912902D7
:1033200090912A020E94200E8A159B0554F58D85E6
:1033300018160CF090C0E0912902F0912A02F49046
:10334000E881F9810280F381E02DCE010995FE9C90
:10335000F0011124F595E79597FD019695958795D0
:10336000E81BF90BFB83EA831D821C828A85BD2D35
:103370008B02C00111249F838E838BE19DE00E940C
:1033800099072E960C171D0709F0C0CFDF91CF913A
:103390001F910F91FF90EF90DF90CF90BF90AF9073
:1033A0009F908F907F906F905F904F903F902F9065
:1033B0000895281B2D87B7CEF801868197811816AE
:1033C00019060CF4DECEEE24EA94FE2CDDCE343069
:1033D00009F0F3CEEA80FB80E881F9810280F38175
:1033E000E02DCE01099597FD019695958795E80EFC
:1033F000F91E80911F07909120074896E81AF90A54
:1034000021E030E01E141F0414F02FEF3FEF8E81F7
:103410009F8197FF03C0919581959109829FA0019B
:10342000839F500D929F500D11245F834E83C5CE14
:103430008EE08C9FF0018D9FF00D1124EF56F94F17
:1034400013860ACF2AE016CF21963E96CA30D105C0
:1034500009F0E0CE53CF1C8694CFCF9310928F0605
:1034600010928E06C0E3E0912902F0912A02649145
:103470006C9FB00111246056710980E390E0A0E0D8
:10348000B0E0613371057CF0072E000C880B990BBE
:1034900060537109810991090E945613DC01CB0127
:1034A000C096A11DB11D90938906809388068091D6
:1034B000290290912A020E94200EBC0160567109D7
:1034C000072E000C880B990B61337105810591055E
:1034D0000CF451C060537109810991090E9456137F
:1034E000DC01CB01C096A11DB11DAC0190938B06F0
:1034F00080938A062091880630918906E0911F0703
:10350000F0912007E21BF30BE158FF4FEF3FF1056D
:1035100070F0E0912107F0912207BF01681B790B41
:10352000CB0181589F4F61E08F3F910508F460E027
:10353000E0912902F0912A0284918C9FC00111240C
:10354000959587958F579109281739077CF0E49155
:10355000EC9FF0011124F595E795E158FF4FE21734
:10356000F30724F0403551400CF47DCF662309F475
:103570007ACFCF91089580E390E0A0E0B0E0B5CF9E
:1035800080E890E09093200780931F0786E990E001
:10359000909322078093210781E080932707109260
:1035A0002F0710922E0710922907E0E3F7E0148608
:1035B0003D9688E0E433F807D1F78DE197E09093EA
:1035C0002B0780932A078AE080932402E1E9F6E042
:1035D000148615863E9687E0ED31F807C9F70E94FC
:1035E0002D1A10922807109228021092270208958F
:1035F0002F923F924F925F926F927F928F929F9203
:10360000AF92BF92CF92DF92EF92FF920F931F93F0
:10361000CF93DF93CDB7DEB729970FB6F894DEBF0F
:103620000FBECDBF81E080930E0187E690E09093BE
:10363000F7018093F60188E090E09093F501809384
:10364000F40160912F0770E090E080E04AE00E9472
:10365000991210920E018091FA019091FB0126E0DF
:1036600030E0B9010E945F307B018091F8019091B8
:10367000F901B9010E945F3079876887E0912902DA
:10368000F0912A0284913196E49196E09B01969FF5
:103690004001979F900C1124275F3F4F3A83298365
:1036A000482F50E05C834B838E2F90E09E838D8368
:1036B00091E09E0D9F8333243A943E0CA885B985F2
:1036C000E981FA81AE17BF0709F4A2C010E000E05B
:1036D000788422242A94270C5701A00EB11E2B8136
:1036E0003C81A216B30608F083C04D815E818885B7
:1036F00099858417950708F07BC0402E602E6E0CCC
:10370000472D662D8091290290912A020E94141063
:10371000882309F46DC0C0902D02D0902E028091B4
:10372000290290912A020E94200E60E370E00E941C
:103730005F3061507109A885B985A617B7073CF0BD
:10374000C0902B02D0902C02612C512C38C0E885FF
:10375000F985EF2BA9F3422D662D809129029091D6
:103760002A020E9414108111EBCF80912F029091B8
:103770003002892B49F3472D6F81600F8091290218
:1037800090912A020E941410612C512C811108C0C2
:10379000C0902F02D090300282E0682E55245394BE
:1037A000632D640D472D8091290290912A020E9479
:1037B0001410811104C0C0902F02D090300280916B
:1037C000F8019091F901B401681B790BF6E0FA9DBC
:1037D000C001FB9D900D11242091FA013091FB0155
:1037E000821B930B252DA601861991090E941E0CA0
:1037F0000F5F1F4F0F30110509F06ECF28853985F7
:103800002F5F3F4F3987288736E0830E911C56CFB4
:1038100086E896E00E947A0F811128C060918A069E
:1038200070918B0677FF02C0695F7F4F13E075953B
:1038300067951A95E1F78091F8019091F901681B5D
:10384000790B809188069091890697FD0796B3E0E1
:1038500095958795BA95E1F72091FA013091FB0192
:103860004AEB51E0821B930B0E944A0841E956E063
:103870005A83498306E010E0E6E1BE2EF5E0EF2E24
:10388000F12CAAE0AA2EA981BA811C968C911C97D2
:10389000882309F454C0CD010E947A0F81114FC0D2
:1038A000E981FA813285428153813403C001359F19
:1038B000900D112497FD0F9674E0959587957A9554
:1038C000E1F781509F4F21E013160CF420E0A9810D
:1038D000BA811496CD90DC90D7FE03C0B7E0CB0E32
:1038E000D11C63E0D594C7946A95E1F76091F80123
:1038F0007091F901C61AD70A57FF02C0495F5F4F9E
:1039000033E0559547953A95E1F76091FA0170914A
:10391000FB01FA01E61BF70BA981BA811B963C91CA
:103920003111CBC0B7010E945F308A9DA0011124E4
:103930004A5B5D4FB601CF0101970E941E0CE981E1
:10394000FA813E96FA83E983ED51F74009F09BCF67
:103950008DE197E00E947A0F8111B5C3209127076E
:1039600031E03B8312160CF41B8200911F0710916B
:1039700020078091230790912407892B09F4A9C07F
:103980002003C001219F900D112497FD4F9625E043
:10399000959587952A95E1F781509F4F65E070E0F6
:1039A0000E945F30898360912107709122076F5FC9
:1039B0007F4F28E430E040E350E0C8010E947510DA
:1039C000811108C0809125079091260797FF83C039
:1039D00044E049838090F8019090F901A090FA01A9
:1039E000B090FB0199818BE0989FA0011124435B6B
:1039F0005C4F609121077091220777FF02C0695FD9
:103A00007F4F03E0759567950A95E1F76819790985
:103A100080911F079091200797FD079613E09595D9
:103A200087951A95E1F78A199B092B8101970E94C6
:103A30001E0CE0912A07F0912B070281138117FFDA
:103A400002C0095F1F4FB3E015950795BA95E1F7DE
:103A50000A191B0909501109A481B581BA83A983E8
:103A6000B7FF03C01796BA83A98329813A81A3E0DF
:103A700035952795AA95E1F7281939093A832983BD
:103A800032857724739413160CF4712CE091280777
:103A9000ED3008F0A7C1F0E0E05BF24E0C9473301B
:103AA000391E7F1E951EE61E6E1D5C1EF21E681ED0
:103AB000B01ED71E391EBE1ECA1EB8010E945F303E
:103AC0008B9DA00111244E535E4FB601CF01049788
:103AD00034CF198268CF51E059837CCF20912907D8
:103AE000D12CC12C293068F43203C001112497FD78
:103AF000019695958795080F191FF9E3CF2EF3E0EE
:103B0000DF2E49815A81425051095A834983F12C51
:103B1000E12CC114D10409F0B7C0809128078A3084
:103B200021F5C114D10409F4CAC2272D30E02F5F5A
:103B30003F4F21703327A60169817A81C8010E9415
:103B40001E0CE114F10489F081E080930E01272D11
:103B500030E02F5F3F4F21703327A70169817A81C1
:103B6000C8010E941E0C10920E01809128078C3013
:103B700069F5A0912A07B0912B071496ED91FC915D
:103B80001597F7FD379633E0F595E7953A95E1F708
:103B9000E819F9093496E034F10508F094C28091EF
:103BA000290765E00E943F3046E0481B12968D9140
:103BB0009C9197FD079623E0959587952A95E1F7C7
:103BC00020E0BF018A199B090E94AC0B8091280755
:103BD0008B3019F0863009F076C2E0912A07F09117
:103BE0002B070481158117FF02C0095F1F4F83E077
:103BF000159507958A95E1F7081919090C5F1F4F6C
:103C0000A281B381BA83A983B7FF03C01796BA8391
:103C1000A98329813A81B3E035952795BA95E1F7D3
:103C20002A193B093A83298380912907869586952D
:103C3000928519160CF0D9C0A4E0EA2EE81A2A5F82
:103C40003F4F3A8329832E0D311D790149815A81D5
:103C50004E155F050CF037C221E042E0B8018981C2
:103C60009A810E949C0D89819A8101969A83898309
:103C7000EDCF89819A8103969A838983F12CE12C77
:103C80007EE2C72E73E0D72E272DA60169817A81A7
:103C9000C8010E941E0CE114F10409F43ECF81E03A
:103CA00080930E01272DA70169817A81C8010E94A6
:103CB0001E0C10920E0131CFA981BA811296BA83DF
:103CC000A983F12CE12C60E2C62E63E0D62EDCCF76
:103CD000E981FA813296FA83E98380912907853058
:103CE00008F430E0031B110937FD13954CE9E42E6D
:103CF00042E0F42E52E1C52E53E0D52EC5CF4981C6
:103D00005A814E5F5F4F5A834983209129073203BE
:103D100090011124021B130B21E9E22E22E0F22E66
:103D200034E0C32E33E0D32EAFCF89819A8103963E
:103D30009A838983209129073203C001112497FDBA
:103D400003969595879595958795081B190B8CE992
:103D5000E82E82E0F82E96EFC92E92E0D92E94CF6D
:103D6000A981BA811396BA83A983F3E8EF2EF2E012
:103D7000FF2EA5EECA2EA2E0DA2E86CFE981FA81C7
:103D80003296FA83E983F12CE12CE4EDCE2EE2E0C9
:103D9000DE2E7ACF29813A812E5F3F4F3A832983E5
:103DA000F12CE12C73ECC72E72E0D72E6DCF498138
:103DB0005A814C5F5F4F5A83498358E7E52E52E0A2
:103DC000F52E65EBC62E62E0D62E5ECF89819A81F4
:103DD00001969A838983F12CE12C44EAC42E42E0B7
:103DE000D42E52CFD12CC12C92CEA981BA81A80F4A
:103DF000B11DBA83A9837D01B4E0EB1AF108E98112
:103E0000FA81EE15FF0509F45EC121E042E0B80138
:103E1000C7010E949C0DFFEFEF1AFF0AF0CFA0E34D
:103E2000B7E0BA83A983F4E3EF2EF8E0FF2EA2E017
:103E3000AA2EE981FA8183858D3011F4A0920E01BA
:103E4000A981BA811C968C911C97882309F4B8C06B
:103E5000CD010E947A0F8111B3C0A981BA81ED9181
:103E6000FC9111970480F581E02D80910E01823044
:103E700009F053C0CD01099597FD0796E3E09595AC
:103E80008795EA95E1F7B82EA981BA81ED91FC9169
:103E900011970280F381E02DCD01099597FD0796DA
:103EA00073E0959587957A95E1F7E981FA81C48069
:103EB000D580D7FE03C0F7E0CF0ED11C63E0D594C8
:103EC000C7946A95E1F72091F8013091F901C21A7F
:103ED000D30AA981BA8112960D911C9117FF02C0D5
:103EE000095F1F4F53E0159507955A95E1F720910B
:103EF000FA013091FB01021B130B4801880E911C43
:103F0000081519050CF05CC022E04B2DB601C80164
:103F10000E949C0D0F5F1F4FF3CF89819A810995F5
:103F200097FD079643E0959587954A95E1F7B82E5A
:103F3000A981BA81ED91FC9111970280F381E02D66
:103F4000CD01099597FD079633E0959587953A95AC
:103F5000E1F7E981FA81C480D580D7FE03C0F7E09C
:103F6000CF0ED11C23E0D594C7942A95E1F7209178
:103F7000F8013091F901C21AD30AA981BA811296C7
:103F80000D911C9117FF02C0095F1F4F93E015951B
:103F900007959A95E1F72091FA013091FB01021BF8
:103FA000130B4801880E911C081519054CF421E0EB
:103FB0004B2DB601C8010E949C0D0F5F1F4FF4CF1F
:103FC00010920E01E981FA813D96FA83E983EE169B
:103FD000FF0609F02ECFF0902302FF2009F454C011
:103FE000FBE08091E4018F5FFF1508F487E3809385
:103FF000E40120911C0230911D023A832983B9010A
:10400000330F880B990B0E9472248C01482F440FA8
:10401000480F440F80E00E30110520F4942F969540
:1040200088E2891BEE24E394E0920001C090E40151
:10403000D12C4D5FB601625071092BE090E00E94D7
:10404000C50DE0920E01D092F501C092F40182E01C
:1040500090E00E30110560F486E0809F9001819F12
:10406000300D1124369527958AE290E0821B930B40
:104070009093F7018093F60189819A810E94810DC6
:104080008FEF8F0D8093230210920E0129960FB6A9
:10409000F894DEBF0FBECDBFDF91CF911F910F917E
:1040A000FF90EF90DF90CF90BF90AF909F908F9058
:1040B0007F906F905F904F903F902F900895E11404
:1040C000F10409F041CD80912E078111A8CE809195
:1040D0003102882309F4A3CE80901F079090200717
:1040E0002091880630918906285E3F4F28193909AA
:1040F000790148E1E41AF108FA82E982F7FE04C086
:10410000C90141979A838983A981BA81F3E0B59562
:10411000A795FA95E1F7BA83A983A0902107B090FB
:10412000220720918A0630918B06285E3F4F2A197C
:104130003B09890104521109680117FF04C0690194
:10414000BDE1CB1AD108E3E0D594C794EA95E1F735
:10415000E981FA81EE9FB001EF9F700D700D11247F
:10416000CC9CC001CD9C900D900D1124680F791F3F
:10417000072E000C880B990B0E94EB2E0E94EA2F51
:104180000E94B32EFB01653171050CF448CE9401F9
:10419000285E3F4F37FF02C0295F3F4F63E03595F0
:1041A00027956A95E1F78091FA019091FB01281B10
:1041B000390B89819A8174E0880F991F7A95E1F70C
:1041C000BF010E945F30260F371FA5014C5D5F4F76
:1041D0005A83498357FF04C0C5018B969A8389830C
:1041E000A981BA8143E0B595A7954A95E1F78091F9
:1041F000F8019091F901A81BB90BBA83A983C601F4
:1042000054E0880F991F5A95E1F7BF010E945F3073
:10421000E981FA81E60FF71FFA83E98317FF02C0ED
:10422000015C1F4F96E0159507959A95E1F7C980B7
:10423000DA80C00ED11EF7FE03C0FFE3EF0EF11CC3
:1042400086E0F594E7948A95E1F749018E0C9F1C6E
:1042500017FF03C0119501951109F7FE03C0F194F2
:10426000E194F108E016F1065CF09C2D8D2D6401BF
:10427000892E982E99818A813A832983292F382F74
:1042800049815A81C416D50654F0982D892D4901CB
:10429000292F382F9C2D8D2D6A0199838A8329809F
:1042A0003A802C183D0829014818590857FE03C0C8
:1042B000519441945108310137FE03C05FEF651AF4
:1042C000750A7594679481E0821693060CF08FEF5F
:1042D000A82E880FBB0889819A818C159D050CF446
:1042E0009ECD41E0B601C401E016F10614F0B40120
:1042F000C6010E94030C6418750877FE04C08A0C7E
:104300009B1C620C731C9FEFC91AD90AE4CF1F9241
:104310000F920FB60F9211248F939F938091E1001B
:104320009091E100937F9093E10083FF0FC0109282
:10433000E90091E09093EB001092EC0092E39093EF
:10434000ED001092110298E09093F00082FF22C0DD
:1043500093E09093E9009091F200992319F09AE389
:104360009093E80090910202992341F0909102020B
:10437000915090930202911101C05D9A90911002A8
:10438000992341F090911002915090931002911155
:1043900001C0289A84FF18C08091E2008E7E81605F
:1043A0008093E2008091E1008F7E8093E100809114
:1043B00003028E7E8061809303029F918F910F9004
:1043C0000FBE0F901F90189580FFF7CF8091E200ED
:1043D0008E7E80618093E2008091E1008E7E8093EA
:1043E000E100809103028E7E8160E5CF1F920F92E3
:1043F0000FB60F921124CF92DF92EF92FF920F939C
:104400001F932F933F934F935F936F937F938F935C
:104410009F93AF93BF93EF93FF93CF93DF93CDB76A
:10442000DEB76C97DEBFCDBF1092E9008091E80047
:1044300083FF25C068E0CE0145960E94B80A82EF4E
:104440008093E8008D8987FF39C09091E80090FF44
:10445000FCCF982F907609F034C19E894F89588DF2
:104460002F89F88C911131C0803861F5809101025B
:104470008093F1001092F1008EEF8093E8006C962B
:104480000FB6F894DEBF0FBECDBFDF91CF91FF9185
:10449000EF91BF91AF919F918F917F916F915F91BC
:1044A0004F913F912F911F910F91FF90EF90DF90CF
:1044B000CF900F900FBE0F901F9018959EEF909386
:1044C000E800C7CF1092F100D5CF913059F4811197
:1044D000D3CF4130510581F6809101028D7F8093C9
:1044E0000102CACF933049F48111C6CF4130510542
:1044F00019F6809101028260F2CF953041F48091EB
:10450000E80080FFFCCF20682093E300B5CF963011
:1045100009F0A9C00B8D1C8D22E01092E9001092C9
:10452000FF011092FE01F2122EC01092FD011092B6
:10453000FC010E94870A1F8299E09983FA8291E028
:104540009E8390EA98879AEF99872091FE01309197
:10455000FF01275F3F4F3C832B838D831092E9003F
:104560001092FF011092FE011093FD010093FC01D7
:1045700049E050E0BE016F5F7F4F80E00E94610A1A
:104580000E94870A79CF1093FD010093FC010E94DD
:104590009E09DC0112960D911C910115110509F47B
:1045A00051C1D801ED91FC910480F581E02DBE014F
:1045B0006B5E7F4FC8010995009709F03EC1F80175
:1045C00000851185EACFF3E0FF120EC08F898823A2
:1045D00009F440C0823061F440E867E08FEB9CE072
:1045E0000E947C24811148CF81E28093EB0047CF69
:1045F000813029F440E86BE083EB9CE0F1CF83301D
:1046000099F70E949E09DC011296ED90FC908E01B4
:104610000F5F1F4F6801E114F10479F0D701ED91AC
:10462000FC910680F781E02DB801C7010995080FBC
:10463000111DF701E084F184EECFD8011C92F60140
:1046400001900020E9F73197BF016C197D0940E026
:10465000C601C6CF6DE97CE0FB01449150E080E8E3
:104660000E94610A09CF973009F4BECF983021F437
:1046700081E08093F10000CF993009F0FDCE837086
:1046800009F0B2CFECE3F1E081E031E096E3219173
:10469000222371F08093E9003093EB00DF01119742
:1046A0002C912093EC009093ED008F5F873079F789
:1046B0008EE78093EA001092EA008F8980931102BE
:1046C000DBCE8B8D9C8D1092E9001092FF01109231
:1046D000FE019093FD018093FC01898D811192C0B0
:1046E0008E899D89913A49F4813209F07DCF47E066
:1046F00050E066E071E080E0B3CF913209F074CF12
:10470000833269F48F89988DB0E0A0E08093020134
:1047100090930301A0930401B0930501ADCE8032C4
:1047200069F48091E80082FFFCCF67E086E091E0C9
:104730000E94B80A8BEF8093E8009ECE823209F087
:104740009BCE8F8980930D01EEEFFFE785919491C9
:104750008B3F9C4D51F1E0E0F8E080910601909193
:104760000701A0910801B0910901803B9440A10587
:10477000B105F1F480910D0180FD1AC0EE3F8AE091
:10478000F80789F587E797E7918380838091600038
:104790008093000288E19BE00FB6F894A89580937F
:1047A00060000FBE9093600067CEEEEFFAE0D5CFC9
:1047B000808191818737974709F05ECEA8958091D7
:1047C00060008861809360008091000280936000A7
:1047D000EE3F2AE0F20789F08091FE0A9091FF0AED
:1047E0009183808349CE808191818737980751F2E8
:1047F0009093FF0A8093FE0AC5CF1092FF0A109291
:10480000FE0A3ACE0E949E09DC0112960D911C917F
:104810000115110509F4E8CED801ED91FC91019044
:10482000F081E02DBE016B5E7F4FC80109958111BB
:1048300023CEF80100851185EBCF181619060CF46C
:104840001BCED2CEF1E0FF12BECE61EA7CE004CFF7
:104850000F920FB68F939F93EF93FF938091E80190
:104860008D5F8D3708F08D578093E801E9EEF1E018
:1048700080818E4F808391819F4F918382818F4F62
:10488000828383818F4F8383EDEEF1E080818F5FA0
:10489000808381818F4F818382818F4F8283838147
:1048A0008F4F83838FB18F6066991C9B88278F36CB
:1048B00081F48091E701981B963068F0E0E0F8E021
:1048C00087E78083818388E180936000F0936000B4
:1048D000FFCF9093E701FF91EF919F918F910FBED2
:1048E0000F901895FB0105900020E9F760957095F1
:1048F0006E0F7F1FCB010895EF92FF920F931F93CE
:10490000CF93DF93F82E192FE62E042F81E0860F28
:10491000880F0E94330A83E00E94330ACF2DD12FE3
:10492000EC0EFD2EF11CCE15DF05B9F007FF13C00C
:10493000FE0184910E94330A182F80E00E94330AFE
:10494000812321968111EFCFDF91CF911F910F919C
:10495000FF90EF9008958881EDCF81E0F5CF109220
:1049600039061092380688EE93E0A0E0B0E080931C
:104970003A0690933B06A0933C06B0933D068BE627
:1049800091E090933706809336068FEF9FEF9093D8
:10499000430680934206109237081092360885ED40
:1049A00091E0909335088093340810923A08109261
:1049B0004308E0E3F7E08FEB91E0918380833D963D
:1049C00028E0E433F207C9F789EA91E090931E07E3
:1049D00080931D0783E991E090939206809391065E
:1049E0009093A00680939F069093AE068093AD06A9
:1049F0009093BC068093BB069093CA068093C90629
:104A00009093D8068093D7069093E6068093E506A8
:104A10009093F4068093F306909302078093010726
:104A20009093100780930F078DE791E0909387068E
:104A3000809386060895CDB7DEB72897DEBFCDBF39
:104A4000789483E084BD83E085BD81E080936E002F
:104A5000E1E8F0E083E08083E0E881E08083E1E961
:104A600083E08083E0E981E08083E1EC87E080837C
:104A7000E3EC81E08083E0EC82E08083E2EC81E0A3
:104A80008083EAE787E08083806880831092110248
:104A900010920102109203028091D70081608093EE
:104AA000D70080EA8093D80089B5806189BD89B537
:104AB000826089BD09B400FEFDCF81E090E00E94D4
:104AC000F20A8091D8008F7C80618093D800809119
:104AD000E000807F8093E0008091E1008E7E8093F3
:104AE000E1008DE08093E200559A209A82E3809362
:104AF000010181EC80937C0081E785B987E684B968
:104B000085E38BB98FE38AB9769A6E9880EF81BB83
:104B100010BA80E58CBD81E08DBD85E00E94A10BBF
:104B2000599A85E00E94A10B5C98E4E3F9E0859135
:104B30008EBD00000DB407FEFDCFEE33C1F75C9AC9
:104B400081E88093640081E08093650080E00E94AA
:104B5000430980E80E94F80B8823A9F05C9885EA55
:104B60008EBD00000DB407FEFDCF5C9A2E985898BC
:104B70002D988091640080628093640081E083BFFF
:104B8000889513BEFCCF84E00E94F80B8823B9F10E
:104B90002D9884E80E94F80B8823A1F02D9A88ECC8
:104BA0000E94A10B58986FEF82E090E00E94512D77
:104BB00084EF91E00E94F20A589A84E80E94F80B70
:104BC0008111FBCF84E10E94F80B8823A1F02D9A7C
:104BD00088EC0E94A10B2E9860E082E090E00E9499
:104BE000512D84EF91E00E94F20A2E9A84E10E94F6
:104BF000F80B8111FBCF88EC0E94A10BC4CF2D9A3A
:104C000082E090E00E94492D882309F41FC23E9A59
:104C1000579A81E090E00E94492D282F2470F22EAF
:104C200081FF0CC021112E9801EF1FEF80E40E943C
:104C3000F80B882309F40DC22E9A589A82E30E9439
:104C4000A10B0E94A40B8111F9CF109290008AE071
:104C5000809391001092C00018E01093C100109250
:104C6000C2001092C3001092BF001092CF0080E1EA
:104C700092E00E94492D8A3AE9F0FE013196DF0167
:104C80001D921A95E9F78AEA89837F0100E112E013
:104C9000F701D1907F01C8010E94492DD81621F05B
:104CA0006D2DC8010E94632D0F5F1F4F0831F2E088
:104CB0001F0771F781E192E00E94492D80931B024A
:104CC00082E192E00E94492DF82E80931A021EE1A3
:104CD000C12E12E0D12E03E112E0C8010E94492D3D
:104CE000D6018D936D010F5F1F4F0831B2E01B0796
:104CF000A1F7F09231020F2D10E055245394EDE806
:104D0000CE2EEAE0DE2EF5E82F2EFAE03F2EA6E1C9
:104D10006A2E712CB0EAEB2EFF24FA940E94F70D54
:104D20008823E1F381E00E9443090E942F070E943B
:104D3000E00780911302809312020E94A40B8093DB
:104D40001302F801EE0FFF1FE55DFE4F808091809A
:104D500090922A02809229020093310202301105BA
:104D600009F41CC20CF013C20115110509F416C296
:104D70000130110509F423C24424439440920E01EA
:104D80007092F7016092F601A6E2B0E0B093F501EF
:104D9000A093F4018EE49AE00E94810DE2E2F0E03B
:104DA000F093F701E093F60180E390E09093F50132
:104DB0008093F40186E49AE00E94810DD801A25EFE
:104DC000BD4F5D016C9170E090E080E04AE00E9490
:104DD000991210920E0144E559E065E070E090E010
:104DE00080E00E944A088091290290912A020E9444
:104DF000200EE0912902F0912A02E491B7010E946D
:104E00005F309B012C5E3F4FB0E3EB9FC00111244C
:104E1000B7010E945F30CB01A401B901805A9F4FB6
:104E20000E944A088091F2019091F3016FE070E0D6
:104E30000E944B30892B09F4542480911A02801768
:104E40001106C1F481E080930E01F5018081843068
:104E500008F4D1C1883008F4E9C18C3008F4E9C104
:104E60008E3008F4E9C160E1B62E803108F4C5C186
:104E700010920E01A0901A02B12CA016B1060CF5EA
:104E80005520F9F029E04BE26FE070E08AE490E011
:104E90000E94C50D81E08093F10110920E018BE418
:104EA00090E09093F7018093F60180E190E0909379
:104EB000F5018093F4018EE399E00E94810D109238
:104EC000F10184E00E94F80B882309F4B8C1A01610
:104ED000B1060CF4B4C10E94C01A87EC282E8AE0F7
:104EE000382E92E1492E9BE0592E0E94F70D88231F
:104EF00009F49DC381E00E9443090E942F070E948C
:104F0000E00705E3E02E01E0F02E04E112E0DD24ED
:104F1000DA94D7018D917D010E94F80BF8019191EF
:104F20008F01882309F4A5C131979F5F90838BE39C
:104F300091E08E159F0569F786E896E00E94FE10C5
:104F400000918A0610918B068091290290912A0285
:104F50000E94200E8017910714F40E942D1A809150
:104F60001F07909120072091880630918906A9019A
:104F7000405D5F4F8417950708F0F9C1C096281768
:104F8000390708F0F4C18091210790912207209100
:104F90008A0630918B06A901405D5F4F8417950703
:104FA00008F0E5C1885B9F4F2817390708F0DFC17B
:104FB00080912F078F5F80932F0786E49CE00E94EB
:104FC000E806C0902807D12CF12CE12C80911B021F
:104FD00090E00196AC01092E000C660B770B01974F
:104FE00009F451C1CB01BA016150710981099109DC
:104FF0000E9456136F5F7F4F8F4F9F4F10911B0280
:105000006C0D7D1D8E1D9F1D212F30E02F5F3F4FAA
:10501000032E000C440B550B0E94712D6093280742
:105020006D3008F03EC1E62FF0E0E75EF74D0C94DE
:1050300073301F2B2E2B2B2B3D2B4829252B402B40
:10504000282B312B3A2B222B342B372B3E98579879
:10505000E0CDFF2029F00430110511F42E9A589864
:1050600081E00E944309402F4770E42EA80183E0AD
:10507000559547958A95E1F7CA019695982F882707
:10508000979587958E5C9D4F70E060E04E3FAFEF47
:105090005A0769F130E020E0DB01AC57B74F6C01F3
:1050A000E0E8CE0ED11CFD01E20FF31FE491F0E029
:1050B0003F010E2C02C0660C771C0A94E2F74F3FAA
:1050C000540739F05C01A20EB31EF50194889628AE
:1050D000948AEE2039F05601A20EB31EF501948891
:1050E0009728948A2F5F3F4F28353105E1F64F5FAF
:1050F0005F4F80589F4F685A7F4F603B710531F674
:1051000080E00E9443098FE00E94A10B0F5F1F4FB8
:105110000931110509F08ACDFF2011F0589A2D9818
:1051200080E991E00E94F20A2D9A81E090E00E94CD
:10513000492D80FF83CD8AE090E00E94492D9FEFAA
:10514000980F9E3F08F07ACD22E330E03093F701CC
:105150002093F60128E330E03093F5012093F40129
:105160000BE010E0682F84E398E00E94C90CC801AE
:105170000E94492D0F5F1F4F0131110599F780E003
:105180000E94430988EE93E00E94F20A57CD033053
:10519000110511F10430110509F0EECDD0922C0269
:1051A000C0922B02EDE7FAE0F0932E02E0932D027D
:1051B00085E79AE09093300280932F02DDCDD09264
:1051C0002C02C0922B0230922E0220922D021092BD
:1051D000300210922F02D0CDADE6BAE0B0932C028F
:1051E000A0932B02E5E6FAE0F0932E02E0932D0265
:1051F0008DE59AE0DFCF54E0B52E7092F701609212
:10520000F60189E390E09093F5018093F401552035
:1052100009F42ECE86E499E00E94810D6B2D70E09A
:1052200090E080E04AE00E94991222CE48E0B42E3D
:10523000E4CF3CE0B32EE1CF2EE0B22EDECF80E40F
:105240000E94ED0B882339F0C801019665E070E0FB
:105250000E945F308C0180E20E94ED0B882309F4EC
:105260005DCDC801049665E070E00E945F308C015E
:1052700055CD992309F45BCE31979F3F11F41082ED
:1052800056CED08254CE61E070E080E090E0B6CEA1
:1052900081E49CE090931D0280931C0280E2809345
:1052A00023028091310281111EC080912F07883026
:1052B00009F4E9C18C3009F4F1C18430A1F4111171
:1052C00012C081E080931B02809328078BED9BE046
:1052D00090931D0280931C0284E3809323028DE946
:1052E0009BE00E94990780913102813069F480919E
:1052F0002F078C3009F412C208F0DAC1843009F4A7
:10530000E8C1883009F4FDC180913102823069F42E
:1053100080912F078C3009F454C208F019C28430F0
:1053200009F429C2883009F43CC2809131028330EB
:10533000E1F480912F078E3009F465C2803109F4C1
:1053400073C28C3091F480911B028B3070F48BE02F
:1053500080931B028093280788EB9AE090931D02AC
:1053600080931C0284E3809323020E942D1A0E94E2
:105370007F160E94D617E0912902F0912A028491AB
:1053800020E3829FC001112413E0880F991F1A9512
:10539000E1F7853591050CF056C21092FB01109291
:1053A000FA01CF010E94200E63E0880F991F6A95D1
:1053B000E1F7C1970CF07DC21092F9011092F8014B
:1053C0008091270290912802181619060CF03FC010
:1053D0000197909328028093270263E070E080E0B9
:1053E00090E00E945613A0912502B09126029B01E5
:1053F000AC0121503109410951090E949B2D209196
:10540000FA013091FB01C901860F971F9093FB01B0
:105410008093FA0163E070E080E090E00E94561310
:10542000A0912502B09126029B01AC0121503109C7
:10543000410951090E949B2D2091F8013091F901F9
:10544000C901860F971F9093F9018093F8010E947C
:10545000F81A01E916E0F12CE12C60902107709018
:105460002207C0901F07D0902007D801ED91FC9132
:105470000480F581E02DC80109954C01D801ED911A
:10548000FC910280F381E02DC8010995F801A2800A
:10549000B3808A0D9B1DC816D90608F04BC2F0E3F5
:1054A000CF0ED11CAC14BD0408F044C2D801149630
:1054B0008D919C91880E991E6814790408F03AC267
:1054C000B8E46B0E711C8615970508F033C2F8011D
:1054D000858518160CF02EC281E080932E078EE091
:1054E0008E9DF0018F9DF00D1124EF56F94F019024
:1054F000F081E02D0280F381E02DC801099597FD30
:10550000019695958795A80EB91E80911F079091D9
:1055100020074896A81AB90A8FEF9FEF1A141B04A8
:1055200014F081E090E00E94E71200E317E0D80158
:105530001C968C911C9718160CF041C01B968C91F0
:105540001B978B30E1F5E0902107F0902207C09087
:105550001F07D0902007ED91FC910480F581E02D8C
:10556000C80109955C01D801ED91FC910280F3819D
:10557000E02DC8010995F80122813381820F931F24
:10558000C816D906E0F4F0E3CF0ED11C2C153D056A
:10559000B0F4D80114968D919C91A80EB91EEA140E
:1055A000FB0468F4B8E4EB0EF11C8E159F0538F48B
:1055B000F8018285082E000C990B0E94E712035F08
:1055C0001F4FF8E004331F0709F0B1CF80912E0779
:1055D000882369F180912302811109C080E59CE054
:1055E00090931D0280931C0280E28093230214E1B9
:1055F0000E94F70D8823E1F381E00E9443090E9495
:105600002F070E94E0070E947F160E94D6170E9473
:10561000F81A115051F084E00E94F80B811105C076
:1056200088E00E94F80B882319F30E94C01A80E0DA
:1056300090E0892B09F459CC0E9400004ECC8AE3FB
:105640009CE028CE83E39CE025CE8AE29CE022CE3B
:1056500083E29CE01FCE8BE19CE01CCE85E19CE0C8
:1056600019CE8AE09CE016CE85E09CE013CE8FEF49
:105670009BE010CE87EF9BE00DCE80EF9BE00ACE43
:105680008BEE9BE007CE123008F02DCE82E08093A7
:105690001B02809328078BE89BE01ACE80911A02A8
:1056A000811121CE81E080931A0289E79BE010CE20
:1056B0008E3009F440C0803109F026CE80911A0264
:1056C000823008F021CE82E080931A0283E29BE0D0
:1056D0000CC080911B02833008F016CE83E08093CB
:1056E0001B028093280787E69BE090931D0280931E
:1056F0001C0284E3809323028DE99BE00E949907BA
:1057000003CE80911B02843008F0FECD84E08093AC
:105710001B028093280788E59BE0E7CF80911B025E
:10572000853008F0F1CD85E080931B028093280737
:1057300085E49BE0DACF80911B02863008F0E4CD4F
:1057400086E080931B028093280785E39BE0CDCF02
:105750008E3009F447C0803109F0E7CD80911A02FC
:10576000833008F0E2CD83E080931A0230921D026C
:1057700020921C020EC080911B02873008F0D5CD0C
:1057800087E080931B028093280750921D0240926D
:105790001C0284E3809323028DE99BE00E94990719
:1057A000C4CD90911B02983008F0BFCD80931B02AE
:1057B000809328078DEF9AE090931D0280931C023E
:1057C000E8CF80911B02893008F0AFCD89E080934B
:1057D0001B0280932807AAEEBAE0B0931D02A093A3
:1057E0001C02D7CF80911B028A3008F09ECD8AE040
:1057F00080931B0280932807E9EDFAE0F0931D02E5
:10580000E0931C02C6CF80911B028C3008F0ADCD16
:105810008CE080931B0280932807A8EABAE0B0933B
:105820001D02A0931C029ECD80911A02843008F0C4
:105830009CCD84E080931A02E5E9FAE0F0931D0222
:10584000E0931C028FCD80911F07909120079C014F
:10585000285E3F4F37FF02C0295F3F4FB3E03595C9
:105860002795BA95E1F72A52310937FD1FC04491B7
:1058700080E3489FA0011124A3E055954795AA9580
:10588000E1F743555109241735075CF02491289F0F
:105890009001112473E0359527957A95E1F7245509
:1058A00031093093FB012093FA017BCD30E020E0F9
:1058B000F8CF80912107909122078C010C5D1F4F3A
:1058C00017FF02C0095F1F4F53E0159507955A95C2
:1058D000E1F7085111091093F9010093F80117FD40
:1058E00026C08091290290912A020E94200E97FDE5
:1058F000079643E0959587954A95E1F7C297081773
:10590000190784F08091290290912A020E94200EAA
:1059100097FD079633E0959587953A95E1F78C01C9
:10592000035311091093F9010093F80149CD10E0D8
:1059300000E0F8CFFFEFEF1AFF0A025F1F4F2AE0E7
:10594000E216F10409F089CDF0CD8F929F92AF92CB
:10595000BF92CF92DF92EF92FF92CF93DF93EC0151
:10596000688179818A819B81611571058105910525
:1059700021F464E279ED8BE597E02DE133EF41E02E
:1059800050E00E94712D49015A019B01AC01A7EA28
:10599000B1E40E94902D6B017C01ACEEB4EFA50147
:1059A00094010E949E2DC60ED71EE81EF91EF7FE1A
:1059B00006C081E0C81AD108E10880E8F80AC88268
:1059C000D982EA82FB82C701B6019F77DF91CF912E
:1059D000FF90EF90DF90CF90BF90AF909F908F900F
:1059E00008958F929F92AF92BF92CF92DF92EF92E3
:1059F000FF9260910F0170911001809111019091BF
:105A00001201611571058105910521F464E279EDBA
:105A10008BE597E02DE133EF41E050E00E94712DDE
:105A200049015A019B01AC01A7EAB1E40E94902D03
:105A30006B017C01ACEEB4EFA50194010E949E2D98
:105A4000C60ED71EE81EF91EF7FE06C081E0C81A72
:105A5000D108E10880E8F80AC0920F01D092100145
:105A6000E0921101F0921201C701B6019F77FF90F9
:105A7000EF90DF90CF90BF90AF909F908F90089560
:105A800060930F01709310018093110190931201A4
:105A90000895F999FECF92BD81BDF89A992780B5F6
:105AA0000895262FF999FECF92BD81BDF89A0197EE
:105AB00000B4021639F01FBA20BD0FB6F894FA9A56
:105AC000F99A0FBE0895262FF999FECF1FBA92BDFD
:105AD00081BD20BD0FB6F894FA9AF99A0FBE0196CF
